S01600004175746F6E6F6D6F75735F4361722E737265635F
S11300000C9473000C94220C0C94E9050C944B0C86
S11300100C94130E0C94D70D0C9490000C94900037
S11300200C9490000C9490000C94C20C0C946306F5
S11300300C9490000C948F0E0C94B80E0C94E10E5A
S11300400C9489080C9490000C9490000C949000EB
S11300500C949000CE0097009700970097009700AB
S113006097009700970097009700970097009700D4
S11300709700970097009700AD00F5009700970050
S1130080AA00B600BC00970097009700970097005D
S113009097009700970097009700B0009700E10041
S11300A01901EB000701970097009700970097004C
S11300B097009700970097009700FE00970097001D
S11300C0970097009700B300B90097009700970036
S11300D0970097009700BF00970097009700E600ED
S11300E01E01F000100111241FBECFE5D8E0DEBFD1
S11300F0CDBF10E0A0E6B0E0E2E2F9E202C0059074
S11301000D92A63FB107D9F711E0A6EFB0E001C008
S11301101D92A132B107E1F70E9453020C948F148F
S11301200C940000CF93DF930F92CDB7DEB7CE01CE
S113013001960E94D802898190E0C0978934910584
S1130140B0F7865D9F4FFC01EE0FFF1F0590F49101
S1130150E02D09940E94CD06EACF0E94E706E7CF7E
S11301600E940107E4CF0E941B07E1CF0E943507DC
S1130170DECF0E946907DBCF0E944F07D8CF809162
S1130180E3009091E4008436910588F601969093FB
S1130190E4008093E3000E948407C9CF8091E300C8
S11301A09091E400009719F201979093E4008093F2
S11301B0E300009719F40E940107B9CF0E94840755
S11301C0B6CF80E062E00E947405B1CF80E062E0C7
S11301D00E947C05ACCF80E061E00E947405A7CF4B
S11301E080E061E00E947C05A2CF80E064E00E9490
S11301F0740580E063E00E947C0599CF80E064E0B0
S11302000E947C0580E063E00E947C0590CF80E042
S113021064E00E947C0580E063E00E94740587CF5F
S113022080E064E00E947C0580E063E00E947C053D
S11302307ECF80E065E00E94FC0279CF80E065E03B
S11302400E94040374CFCF93DF93CDB7DEB72C970E
S11302500FB6F894DEBF0FBECDBF0F2EF0E6AF2E63
S1130260F0E0BF2EF02D0AE610E00F2EFDE76F2E12
S1130270F0E07F2EF02D0F2EFEE84F2EF0E05F2EE3
S1130280F02D0F2EFAE92F2EF0E03F2EF02D0F2E39
S1130290FDE68F2EF0E09F2EF02DCE0101960E94F8
S11302A0C3050E94BE0481E061E00E94CB04C50145
S11302B00E94240469817A818B819C810E94DB0FD6
S11302C0DC01CB010E94EE04C8010E942404C98011
S11302D0DA80EB80FC80C701B60120E030E0A901A0
S11302E00E946F0F882351F0C701B60120E030E06F
S11302F040EF51E40E94B910181654F40E94CD0640
S113030081E062E00E94CB04C4010E942404C5CFB2
S113031080E065E00E940C030E94E70680E062E052
S11303200E9474050E94BE0481E061E00E94CB0437
S1130330C3010E9424048FEF99E6A8E18150904004
S1130340A040E1F700C000000E94010760E070E0F7
S113035084E393E40E949305CE0105960E94C305AD
S11303600E94BE0481E061E00E94CB04C2010E94AD
S113037024046D817E818F8198850E94DB0FDC01CE
S1130380CB010E94EE04C8010E9424048FEF99E679
S1130390A8E181509040A040E1F700C0000060E077
S11303A070E0CB010E949305CE0109960E94C3051B
S11303B00E94BE0481E061E00E94CB04C1010E945E
S11303C0240469857A858B859C850E94DB0FDC017A
S11303D0CB010E94EE04C8010E9424048FEF99E629
S11303E0A8E181509040A040E1F700C0000080E007
S11303F062E00E947C056D817E818F8198852985CC
S11304003A854B855C850E94B910181634F560E076
S113041070E084EB92E40E94930580E064E00E9423
S113042074050E941B070E94BE0481E061E00E94E3
S1130430CB0486EA90E00E9424048FEF93EDA0E3BE
S113044081509040A040E1F700C0000080E064E0EB
S11304500E947C050E94010720CF60E070E084EBDD
S113046092E40E94930580E063E00E9474050E9478
S113047035070E94BE0481E061E00E94CB0487EB53
S113048090E00E9424048FEF93EDA0E3815090400C
S1130490A040E1F700C0000080E063E00E947C051A
S11304A00E940107FACECF93DF930F92CDB7DEB748
S11304B00E94740C83E062E00E94DE0283E062E04A
S11304C0AE014F5F5F4F20E00E94ED020E9489035E
S11304D00E949F0680E062E00E946C0580E064E078
S11304E00E946C0580E063E00E946C0580E061E09E
S11304F00E946C0580E065E00E94F40280E064E004
S11305000E947C0580E063E00E947C0580E062E05C
S11305100E947C0580E061E00E947C0580E065E04B
S11305200E9404038981882331F581E061E00E94FF
S1130530CB0488EC90E00E9424048FEF93EDA0E3B9
S113054081509040A040E1F700C000000E948B055C
S113055060E070E084EB92E40E9493050E94AB0596
S11305608FEF93EDA0E381509040A040E1F700C0ED
S113057000000E94230181E061E00E94CB0486ED2B
S113058090E00E9424048FEF93EDA0E3815090400B
S1130590A040E1F700C000000E94BE040E94D20205
S11305A00E9492000E94500E08950E94650E0895C4
S11305B00E945D0E08950E946A0E0895843028F406
S11305C0683018F440E00E94B2080895843020F4A2
S11305D0683010F40E94800A0895843020F4683052
S11305E010F40E942C0A0895843028F4683018F41A
S11305F041E00E94B2080895843028F4683018F469
S113060041E00E9448090895843028F4683018F4C1
S113061040E00E9448090895843020F4683010F4C2
S11306200E94DE090895CF93C82F80FD06C082E0A2
S113063064E040E00E94480905C082E064E041E0D3
S11306400E9448098C2F869580FD06C082E065E0F3
S113065040E00E94480905C082E065E041E00E9454
S113066048098C2F8695869580FD06C082E066E059
S113067040E00E94480905C082E066E041E00E9433
S11306804809C695C695C695C0FD06C082E067E0D8
S113069040E00E94480905C082E067E041E00E9412
S11306A04809CF910895CF93C82F81E061E040E0DD
S11306B00E94480981E062E040E00E9448098C2FD2
S11306C082958F700E94130381E063E041E00E94F1
S11306D048098FE99FE00197F1F700C0000081E02D
S11306E063E040E00E9448098C2F0E94130381E0DC
S11306F063E041E00E9448098FE99FE00197F1F728
S113070000C0000081E063E040E00E944809CF910E
S1130710089581E061E041E00E94B20881E062E076
S113072041E00E94B20881E063E041E00E94B20827
S113073082E064E041E00E94B20882E065E041E0CA
S11307400E94B20882E066E041E00E94B20882E0C2
S113075067E041E00E94B2088FE795EBA1E0815089
S11307609040A040E1F700C0000081E061E040E07B
S11307700E94480981E062E040E00E94480982E06A
S11307800E94130381E063E041E00E944809AFE95D
S1130790BFE01197F1F700C0000081E063E040E0A2
S11307A00E94480988E20E945303B0EFBA95F1F71A
S11307B08CE00E94530380EF8A95F1F781E00E9458
S11307C05303AFE3BFE11197F1F700C0000086E0E7
S11307D00E945303B0EFBA95F1F70895CF93C82F51
S11307E081E061E041E00E94480981E062E040E08C
S11307F00E9448098C2F82958F700E94130381E018
S113080063E041E00E9448098FE99FE00197F1F716
S113081000C0000081E063E040E00E9448098C2FA2
S11308200E94130381E063E041E00E9448098FE9DC
S11308309FE00197F1F700C0000081E063E040E031
S11308400E944809CF910895CF93DF93EC018881EA
S1130850882331F021960E94EE0389918823D9F7E9
S1130860DF91CF9108958F929F92AF92BF92CF92D2
S1130870DF92EF92FF920F931F93CF93DF93CDB745
S1130880DEB760970FB6F894DEBF0FBECDBF6B0125
S11308907C0120E030E0A9010E946F0F88235CF402
S11308A0F7FAF094F7F8F0940F2EF5EE8F2EF0E0AF
S11308B09F2EF02D06C00F2EF7EE8F2EF0E09F2E08
S11308C0F02DC701B6010E94DB0FDC01CB012DB76F
S11308D03EB72A5030400FB6F8943EBF0FBE2DBF2E
S11308E00DB71EB70F5F1F4F5E010894A11CB11C0A
S11308F0EDB7FEB7B282A18228EE30E0F80133836F
S113090022839582848297838683BC0180E090E071
S11309100E9407109B01AC01C701B6010E940A0F97
S113092020E030E44CE156E40E94BD100E94DB0F4D
S1130930DC01CB01F801918780870E94B8112DB7A3
S11309403EB7265F3F4F0FB6F8943EBF0FBE2DBF94
S1130950C5010E94240460960FB6F894DEBF0FBE52
S1130960CDBFDF91CF911F910F91FF90EF90DF905A
S1130970CF90BF90AF909F908F90089581E00E9498
S113098053038FE39FE10197F1F700C0000080E873
S11309900E9453030895CF93DF9300D000D0CDB7C6
S11309A0DEB790E8998390EC9A8394E99B8394ED65
S11309B09C838150FE01E60FF11D9081890F0E94F6
S11309C053038FE99FE00197F1F700C000000F90F7
S11309D00F900F900F90DF91CF9108950F931F9375
S11309E0CF93DF93CDB7DEB7A0970FB6F894DEBFF1
S11309F00FBECDBF2DB73EB7285030400FB6F89488
S1130A003EBF0FBE2DBFEDB7FEB731968E010F5F0F
S1130A101F4FADB7BEB712961C930E93119721E1E9
S1130A2030E03383228322EF30E0358324839783BD
S1130A3086830E9488112DB73EB7285F3F4F0FB6BB
S1130A40F8943EBF0FBE2DBFC8010E942404A09697
S1130A500FB6F894DEBF0FBECDBFDF91CF911F91CB
S1130A600F910895CF93DF93EC01862F642F0E949A
S1130A70CB04CE010E94EE04DF91CF9108950E9431
S1130A8053030895843048F4683038F440E00E94F9
S1130A90B20881E060E80E94EA0708950F931F936B
S1130AA0CF93DF9300D0CDB7DEB78B01611571050D
S1130AB061F0883050F4BE016F5F7F4F0E942F08B1
S1130AC089819A81F801918380830F900F90DF913F
S1130AD0CF911F910F910895843028F4683018F451
S1130AE041E00E94B2080895843028F4683018F474
S1130AF041E00E9448090895843028F4683018F4CD
S1130B0040E00E9448090895843020F4683010F4CD
S1130B100E94DE09089583E065E041E00E94B20886
S1130B200E94FF0C089520E030E040E152E40E946E
S1130B30730F20E030E040EA50E40E940B0FAB0159
S1130B40BC0182E390E00E942C0D0E94180D0895D0
S1130B500E94220D089583E066E041E00E94B208FD
S1130B6083E063E040E00E94B20883E063E041E098
S1130B700E94480981E063E00E94920B0E94780C75
S1130B800E94830C0895CF93DF93EC018091FB00C6
S1130B90882381F483E066E041E00E94480980E50F
S1130BA08A95F1F783E066E040E00E94480981E01D
S1130BB08093FB0080911D0190911E01A0911F0163
S1130BC0B091200188839983AA83BB83DF91CF915D
S1130BD008951F920F920FB60F9211242F933F93F3
S1130BE04F935F936F937F938F939F93AF93BF9331
S1130BF0EF93FF938091FB00813009F053C0809103
S1130C00FA00882369F412BE81E08093FA001092FE
S1130C10F6001092F7001092F8001092F90042C00A
S1130C2022B78091F6009091F700A091F800B0915E
S1130C30F9006627782F892F9A2F620F711D811D65
S1130C40911D27E531E040E050E00E94201120E0B2
S1130C5032EE44E050E00E945211CA01B9016F5FC4
S1130C607F4F8F4F9F4F0E940710DC01CB01809371
S1130C701D0190931E01A0931F01B09320018FEFDB
S1130C8093EFA1E081509040A040E1F700C0000044
S1130C901092F6001092F7001092F8001092F900EA
S1130CA01092FA00FF91EF91BF91AF919F918F91B4
S1130CB07F916F915F914F913F912F910F900FBE54
S1130CC00F901F9018951F920F920FB60F92112438
S1130CD02F938F939F93AF93BF938091F60090913E
S1130CE0F700A091F800B091F9000196A11DB11D83
S1130CF08093F6009093F700A093F800B093F90066
S1130D00873B25E0920720E0A20720E0B20768F0C5
S1130D1012BE1092FB001092FA001092F60010928C
S1130D20F7001092F8001092F900BF91AF919F91D3
S1130D308F912F910F900FBE0F901F90189581E007
S1130D4064E041E00E94B20881E065E041E00E9475
S1130D50B20881E066E041E00E94B20881E067E009
S1130D6041E00E94B20883E067E041E00E94B208DB
S1130D7081E064E040E00E94480981E065E040E0F1
S1130D800E94480981E066E040E00E94480981E051
S1130D9067E040E00E944809089583E067E041E08D
S1130DA00E94480981E064E040E00E94480981E033
S1130DB065E041E00E94480981E066E040E00E946D
S1130DC0480981E067E041E00E944809089583E012
S1130DD067E041E00E94480981E064E041E00E944C
S1130DE0480981E065E040E00E94480981E066E04E
S1130DF041E00E94480981E067E040E00E94480920
S1130E00089583E067E041E00E94480981E064E0DE
S1130E1040E00E94480981E065E040E00E94480902
S1130E2081E066E040E00E94480981E067E040E03C
S1130E300E944809089583E067E041E00E94480960
S1130E4081E064E040E00E94480981E065E041E01F
S1130E500E94480981E066E040E00E94480981E080
S1130E6067E040E00E944809089583E067E041E0BC
S1130E700E94480981E064E040E00E94480981E062
S1130E8065E040E00E94480981E066E040E00E949D
S1130E90480981E067E041E00E944809089583E041
S1130EA067E041E00E94480981E064E040E00E947C
S1130EB0480981E065E040E00E94480981E066E07D
S1130EC041E00E94480981E067E040E00E9448094F
S1130ED0089583E067E041E00E94480981E064E00E
S1130EE041E00E94480981E065E040E00E94480931
S1130EF081E066E040E00E94480981E067E040E06C
S1130F000E94480908950895CF93C82F0E94710D37
S1130F106C2F70E080E090E00E9407100E94990D11
S1130F200E947E0DCF910895CF93DF9381E064E01A
S1130F30C0E0D0E0AE010E942C0A8881813081F4A7
S1130F408FEF96E1A1E181509040A040E1F700C00D
S1130F5000008091FC008B3518F0865F8093FC00C4
S1130F6081E065E0C0E0D0E0AE010E942C0A8881F7
S1130F70813081F48FEF96E1A1E181509040A0404F
S1130F80E1F700C000008091FC008B3018F08A501B
S1130F908093FC0081E066E0C0E0D0E0AE010E94F6
S1130FA02C0A8881813059F48FEF96E1A1E18150B8
S1130FB09040A040E1F700C000001092FC00909126
S1130FC0FC0080E064E670E00E943F1163BDDF91A5
S1130FD0CF910895823029F0833049F0813049F46B
S1130FE003C03E983F9805C03E9A3F9802C03E9A7F
S1130FF03F9A3D9835983398862F82508F3768F5FD
S11310006031E1F0613138F4643081F0683091F09E
S1131010623019F507C06034C9F06038D9F0603225
S1131020E1F410C030983198329817C03098319A52
S1131030329813C0309A319A32980FC03098319850
S1131040329A0BC0309A3198329A07C03098319A4C
S1131050329A03C0309A319A329A379A08956115B8
S1131060710509F44EC0803208F04BC0833011F191
S1131070843028F4813091F08230B0F409C0853096
S113108029F18530E8F0863039F1873081F52AC0BE
S1131090389839983A983B983C9829C0389A3998A6
S11310A03A983B983C9823C03898399A3A983B9898
S11310B03C981DC0389A399A3A983B983C9817C086
S11310C0389839983A9A3B983C9811C0389A39988C
S11310D03A9A3B983C980BC03898399A3A9A3B987C
S11310E03C9805C0389A399A3A9A3B983C98369A73
S11310F086B184FFFDCF84B195B1FB0191838083D8
S1131100349A0895009721F09093FE008093FD0097
S113111008951F920F920FB60F9211242F933F93AD
S11311204F935F936F937F938F939F93AF93BF93EB
S1131130EF93FF93E091FD00F091FE00309709F0EA
S11311400995FF91EF91BF91AF919F918F917F91FD
S11311506F915F914F913F912F910F900FBE0F9020
S11311601F901895843008F08BC0683008F08AC04E
S1131170423008F089C0813041F1813038F082304A
S113118009F441C0833009F081C05BC0413071F47F
S11311902AB381E090E0AC0102C0440F551F6A9568
S11311A0E2F7BA01622B6ABB80E008952AB381E0BA
S11311B090E0AC0102C0440F551F6A95E2F7BA01F2
S11311C0609562236ABB80E00895413069F447B3B7
S11311D021E030E0C90102C0880F991F6A95E2F747
S11311E0842B87BB80E0089527B381E090E0AC01B5
S11311F002C0440F551F6A95E2F7BA016095622355
S113120067BB80E00895413069F444B321E030E0E5
S1131210C90102C0880F991F6A95E2F7842B84BB29
S113122080E0089524B381E090E0AC0102C0440F53
S1131230551F6A95E2F7BA016095622364BB80E0AA
S11312400895413071F421B381E090E0AC0102C013
S1131250440F551F6A95E2F7BA01622B61BB80E027
S1131260089521B381E090E0AC0102C0440F551F02
S11312706A95E2F7BA016095622361BB80E0089544
S113128081E0089581E0089581E0089580E0089563
S1131290843008F08BC0683008F08AC0423008F00F
S11312A089C0813041F1813038F0823009F441C085
S11312B0833009F081C05BC0413071F42BB381E00D
S11312C090E0AC0102C0440F551F6A95E2F7BA01E1
S11312D0622B6BBB80E008952BB381E090E0AC01FE
S11312E002C0440F551F6A95E2F7BA016095622364
S11312F06BBB80E00895413069F448B321E030E0ED
S1131300C90102C0880F991F6A95E2F7842B88BB34
S113131080E0089528B381E090E0AC0102C0440F5E
S1131320551F6A95E2F7BA016095622368BB80E0B5
S11313300895413069F445B321E030E0C90102C0A9
S1131340880F991F6A95E2F7842B85BB80E0089586
S113135025B381E090E0AC0102C0440F551F6A95AB
S1131360E2F7BA016095622365BB80E008954130DD
S113137071F422B381E090E0AC0102C0440F551F28
S11313806A95E2F7BA01622B62BB80E0089522B34A
S113139081E090E0AC0102C0440F551F6A95E2F76A
S11313A0BA016095622362BB80E0089581E00895EC
S11313B081E0089581E0089580E00895843008F084
S11313C045C0683008F044C08130B1F0813030F05D
S11313D0823001F1833009F03DC02AC02BB381E093
S11313E090E0AC0102C0440F551F6A95E2F7BA01C0
S11313F062276BBB80E0089528B381E090E0AC01E4
S113140002C0440F551F6A95E2F7BA01622768BB10
S113141080E0089525B381E090E0AC0102C0440F60
S1131420551F6A95E2F7BA01622765BB80E008950B
S113143022B381E090E0AC0102C0440F551F6A95CD
S1131440E2F7BA01622762BB80E0089581E0089563
S113145081E0089580E00895843008F049C0683040
S113146008F048C04115510509F446C08130B1F077
S1131470813030F0823001F1833009F03FC02AC05E
S113148089B390E09C0102C0359527956A95E2F7EF
S1131490B9016170FA01608380E0089586B390E039
S11314A09C0102C0359527956A95E2F7B9016170F0
S11314B0FA01608380E0089583B390E09C0102C048
S11314C0359527956A95E2F7B9016170FA01608351
S11314D080E0089580B390E09C0102C03595279583
S11314E06A95E2F7B9016170FA01608380E00895BA
S11314F081E0089581E0089581E0089580E00895F1
S1131500843008F045C0683008F044C08130B1F040
S1131510813030F0823001F1833009F03DC02AC0BF
S11315202BB381E090E0AC0102C0440F551F6A95D3
S1131530E2F7BA01622B6BBB80E0089528B381E027
S113154090E0AC0102C0440F551F6A95E2F7BA015E
S1131550622B68BB80E0089525B381E090E0AC0184
S113156002C0440F551F6A95E2F7BA01622B65BBAE
S113157080E0089522B381E090E0AC0102C0440F02
S1131580551F6A95E2F7BA01622B62BB80E00895A9
S113159081E0089581E0089580E008958430A8F5FD
S11315A0813091F0813028F08230C9F0833079F5B0
S11315B021C06F3F29F48AB38FEF8ABB80E008957E
S11315C08AB31ABA80E008956F3F29F487B38FEF86
S11315D087BB80E0089587B317BA80E008956F3F12
S11315E029F484B38FEF84BB80E0089584B314BAE4
S11315F080E008956F3F29F481B38FEF81BB80E0D1
S1131600089581B311BA80E0089581E0089580E0DF
S113161008958430A8F4813051F0813028F082306C
S113162049F0833079F409C06BBB80E0089568BB4E
S113163080E0089565BB80E0089562BB80E0089572
S113164081E0089580E00895843000F56115710506
S1131650F9F0813061F0813028F0823069F0833014
S1131660C9F40FC08BB3FB01808380E0089588B375
S1131670FB01808380E0089585B3FB01808380E0D3
S1131680089582B3FB01808380E0089581E008958A
S113169081E0089580E008958430E8F4813061F0B9
S11316A0813028F0823069F08330B9F40FC08BB3F5
S11316B080958BBB80E0089588B3809588BB80E0DB
S11316C0089585B3809585BB80E0089582B38095A5
S11316D082BB80E0089581E0089580E0089584301D
S11316E0E8F4813061F0813028F0823069F0833091
S11316F0B9F40FC08BB38FEF8BBB80E0089588B330
S11317008FEF88BB80E0089585B38FEF85BB80E0C1
S1131710089582B38FEF82BB80E0089581E008953D
S113172080E00895813071F1813020F0823009F039
S113173060C050C0613071F0613028F0623089F0CF
S11317406330E1F415C085B7816085BF85B78260D9
S113175085BF14C085B78E7F85BF85B7826085BF7E
S11317600DC085B78E7F85BF85B78D7F85BF06C0C9
S113177085B7816085BF85B78D7F85BF8BB7806452
S11317808BBF0895613071F0613028F0623089F0C8
S11317906330E1F415C085B7846085BF85B7886080
S11317A085BF14C085B78B7F85BF85B7886085BF2B
S11317B00DC085B78B7F85BF85B7877F85BF06C082
S11317C085B7846085BF85B7877F85BF8BB7806801
S11317D08BBF0895662319F0613041F404C084B7C7
S11317E0806484BF03C084B78F7B84BF8BB780625F
S11317F08BBF0895813049F0813018F0823061F454
S113180008C08BB78F7B8BBF08958BB78F778BBF47
S113181008958BB78F7D8BBF0895009721F0909327
S113182000018093FF000895009721F09093020136
S1131830809301010895009721F09093040180930F
S1131840030108951F920F920FB60F9211242F9344
S11318503F934F935F936F937F938F939F93AF9334
S1131860BF93EF93FF93E091FF00F0910001309755
S113187009F00995FF91EF91BF91AF919F918F91DD
S11318807F916F915F914F913F912F910F900FBE78
S11318900F901F9018951F920F920FB60F9211245C
S11318A02F933F934F935F936F937F938F939F9364
S11318B0AF93BF93EF93FF93E0910301F091040181
S11318C0309709F00995FF91EF91BF91AF919F91E6
S11318D08F917F916F915F914F913F912F910F90D5
S11318E00FBE0F901F9018958FB780688FBF089513
S11318F083B78F7B83BF83B7877F83BF12BE89B7CC
S1131900816089BF089583B7816083BF83B78D7F6A
S113191083BF83B78B7F83BF089583B78E7F83BFD5
S113192083B78D7F83BF83B78B7F83BF089529EFF0
S11319302CBF9093060180930501089520E030E0C8
S113194048EC52E40E94730F20E030E040E853E496
S11319500E94BD1020E030E040E85FE30E940A0FDF
S11319600E94DB0F6CBF0895009721F0909308014B
S1131970809307010895009721F090930A018093C2
S1131980090108951F920F920FB60F9211242F93FD
S11319903F934F935F936F937F938F939F93AF93F3
S11319A0BF93EF93FF9380910B0190910C010196EB
S11319B090930C0180930B01209105013091060155
S11319C08217930759F410920C0110920B01E091C5
S11319D00901F0910A01309709F00995FF91EF91FF
S11319E0BF91AF919F918F917F916F915F914F9133
S11319F03F912F910F900FBE0F901F9018958FB5A8
S1131A008E7F8FBD8FB582608FBD8EB588608EBD91
S1131A108EB580618EBD8FB58F7B8FBD8FB580688D
S1131A208FBD8FB58F7E8FBD8FB580628FBD0895BA
S1131A308EB581608EBD8EB582608EBD8EB58B7F76
S1131A408EBD08958EB58E7F8EBD8EB58D7F8EBD75
S1131A508EB58B7F8EBD0895CF92DF92EF92FF9269
S1131A60CF93DF93EC016A017B01CB01BA0120E043
S1131A7030E048EC52E40E946F0F18165CF19E01AE
S1131A8040E050E060E970ED83E090E00E94521184
S1131A902150304037BD26BD66B577B56F5F7F4FA7
S1131AA080E090E00E940710A70196010E94BD10FB
S1131AB020E030E048EC52E40E94730F20E030E074
S1131AC040E85FE30E940A0F0E94DB0FDC01CB01B8
S1131AD09BBD8ABDDF91CF91FF90EF90DF90CF90B7
S1131AE0089585B5806485BD85B5877F85BD85B539
S1131AF0806185BD85B5806285BD089585B58E7F7D
S1131B0085BD85B58D7F85BD85B5846085BD08950A
S1131B1085B58E7F85BD85B58D7F85BD85B58B7F6C
S1131B2085BD089529EF23BD90930E0180930D0187
S1131B30089520E030E048EC52E40E94730F20E066
S1131B4030E040E853E40E94BD109B01AC0160E02A
S1131B5070E08FE793E40E940A0F0E94DB0F63BDDD
S1131B60089520E030E048EC52E40E94730F20E036
S1131B7030E040E853E40E94BD109B01AC0160E0FA
S1131B8070E080E893E40E940A0F0E94DB0F63BDBB
S1131B900895009721F09093100180930F01089508
S1131BA0009721F0909312018093110108951F92E0
S1131BB00F920FB60F9211242F933F934F935F937D
S1131BC06F937F938F939F93AF93BF93EF93FF9301
S1131BD080911301909114010196909314018093C4
S1131BE0130123E0813D920769F4109214011092CD
S1131BF0130181E784BDE0910F01F091100130974A
S1131C0009F00995FF91EF91BF91AF919F918F9149
S1131C107F916F915F914F913F912F910F900FBEE4
S1131C200F901F9018951F920F920FB60F921124C8
S1131C302F933F934F935F936F937F938F939F93D0
S1131C40AF93BF93EF93FF93809115019091160189
S1131C500196909316018093150120910D01309106
S1131C600E018217930759F4109216011092150170
S1131C70E0911101F0911201309709F00995FF915B
S1131C80EF91BF91AF919F918F917F916F915F91F0
S1131C904F913F912F910F900FBE0F901F90189569
S1131CA0529886E880BD87E689B910BC5998579A3E
S1131CB0569A559A539A549A0895009729F05F9B1F
S1131CC0FECF2CB1FC01208308958CB98BB185FF24
S1131CD0FDCF08950F931F93CF938C01FC01808156
S1131CE0882351F0C0E00E94650ECF5FF801EC0F2D
S1131CF0F11D80818823B9F7CF911F910F91089529
S1131D009093180180931701089590931A0180937A
S1131D101901089590931C0180931B0108951F924B
S1131D200F920FB60F9211242F933F934F935F930B
S1131D306F937F938F939F93AF93BF93EF93FF938F
S1131D40E0911701F0911801309709F00995FF917E
S1131D50EF91BF91AF919F918F917F916F915F911F
S1131D604F913F912F910F900FBE0F901F90189598
S1131D701F920F920FB60F9211242F933F934F93FC
S1131D805F936F937F938F939F93AF93BF93EF93DF
S1131D90FF93E0911901F0911A01309709F0099528
S1131DA0FF91EF91BF91AF919F918F917F916F912F
S1131DB05F914F913F912F910F900FBE0F901F9005
S1131DC018951F920F920FB60F9211242F933F93E1
S1131DD04F935F936F937F938F939F93AF93BF932F
S1131DE0EF93FF93E0911B01F0911C01309709F0F0
S1131DF00995FF91EF91BF91AF919F918F917F9141
S1131E006F915F914F913F912F910F900FBE0F9063
S1131E101F9018955058BB27AA270ED070C161D1C6
S1131E2030F066D120F031F49F3F11F41EF456C116
S1131E300EF4E095E7FB4CC1E92F72D180F3BA1799
S1131E40620773078407950718F071F49EF58AC139
S1131E500EF4E0950B2EBA2FA02D0B01B9019001C1
S1131E600C01CA01A0011124FF27591B99F0593F05
S1131E7050F4503E68F11A16F040A22F232F342F4D
S1131E804427585FF3CF469537952795A795F0409B
S1131E905395C9F77EF41F16BA0B620B730B840BB0
S1131EA0BAF09150A1F0FF0FBB1F661F771F881F68
S1131EB0C2F70EC0BA0F621F731F841F48F48795C0
S1131EC077956795B795F7959E3F08F0B3CF9395AF
S1131ED0880F08F09927EE0F979587950895D4D029
S1131EE008F481E008950CD00AC102D140F0F9D081
S1131EF030F021F45F3F19F0EBC0511134C1EEC052
S1131F000FD198F39923C9F35523B1F3951B550BBE
S1131F10BB27AA2762177307840738F09F5F5F4FB8
S1131F20220F331F441FAA1FA9F333D00E2E3AF0F9
S1131F30E0E830D091505040E695001CCAF729D013
S1131F40FE2F27D0660F771F881FBB1F2617370762
S1131F504807AB07B0E809F0BB0B802DBF01FF2792
S1131F6093585F4F2AF09E3F510568F0B1C0FBC003
S1131F705F3FECF3983EDCF3869577956795B795CC
S1131F80F7959F5FC9F7880F911D9695879597F9E7
S1131F900895E1E0660F771F881FBB1F6217730760
S1131FA08407BA0720F0621B730B840BBA0BEE1F75
S1131FB088F7E0950895BCD088F09F5790F0B92F2A
S1131FC09927B751A0F0D1F0660F771F881F991F8A
S1131FD01AF0BA95C9F712C0B13081F0C3D0B1E09C
S1131FE00895C0C0672F782F8827B85F39F0B93FAC
S1131FF0CCF3869577956795B395D9F73EF490958C
S11320008095709561957F4F8F4F9F4F0895E89409
S113201009C097FB3EF490958095709561957F4F2C
S11320208F4F9F4F9923A9F0F92F96E9BB279395DA
S1132030F695879577956795B795F111F8CFFAF4EA
S1132040BB0F11F460FF1BC06F5F7F4F8F4F9F4F1B
S113205016C0882311F096E911C0772321F09EE879
S1132060872F762F05C0662371F096E8862F70E0DF
S113207060E02AF09A95660F771F881FDAF7880FB9
S11320809695879597F90895990F0008550FAA0B0F
S1132090E0E8FEEF16161706E807F907C0F0121677
S11320A01306E407F50798F0621B730B840B950B7A
S11320B039F40A2661F0232B242B252B21F40895CF
S11320C00A2609F4A140A6958FEF811D811D08956C
S11320D097F99F6780E870E060E008959FEF80ECD7
S11320E0089500240A94161617061806090608957A
S11320F000240A9412161306140605060895092EE0
S11321000394000C11F4882352F0BB0F40F4BF2B4E
S113211011F460FF04C06F5F7F4F8F4F9F4F08958E
S113212057FD9058440F551F59F05F3F71F0479584
S1132130880F97FB991F61F09F3F79F08795089569
S1132140121613061406551FF2CF4695F1DF08C088
S1132150161617061806991FF1CF869571056105A5
S113216008940895E894BB2766277727CB0197F94D
S113217008958ADF08F48FEF08950BD0C0CFB1DF44
S113218028F0B6DF18F0952309F0A2CFA7CF1124C9
S1132190EACFC6DFA0F3959FD1F3950F50E0551F0A
S11321A0629FF001729FBB27F00DB11D639FAA27A8
S11321B0F00DB11DAA1F649F6627B00DA11D661FF7
S11321C0829F2227B00DA11D621F739FB00DA11D18
S11321D0621F839FA00D611D221F749F3327A00DD2
S11321E0611D231F849F600D211D822F762F6A2F6E
S11321F011249F5750408AF0E1F088234AF0EE0FF3
S1132200FF1FBB1F661F771F881F91505040A9F7FF
S11322109E3F510570F05CCFA6CF5F3FECF3983E34
S1132220DCF3869577956795B795F795E7959F5F66
S1132230C1F7FE2B880F911D9695879597F9089500
S1132240629FD001739FF001829FE00DF11D649F96
S1132250E00DF11D929FF00D839FF00D749FF00D22
S1132260659FF00D9927729FB00DE11DF91F639FC3
S1132270B00DE11DF91FBD01CF011124089597FB95
S1132280092E07260AD077FD04D02ED006D00020D0
S11322901AF4709561957F4F0895F6F7909581959E
S11322A09F4F0895A1E21A2EAA1BBB1BFD010DC06E
S11322B0AA1FBB1FEE1FFF1FA217B307E407F507F2
S11322C020F0A21BB30BE40BF50B661F771F881FCE
S11322D0991F1A9469F760957095809590959B0164
S11322E0AC01BD01CF010895AA1BBB1B51E107C07E
S11322F0AA1FBB1FA617B70710F0A61BB70B881F92
S1132300991F5A95A9F780959095BC01CD01089520
S1132310AEE0B0E0EEE8F1E10C9466140D891E899C
S11323208F89988D26E02C831A83098397FF02C036
S113233080E090E801979E838D83AE01455E5F4FF8
S1132340CE010196698D7A8D0E94DA114D815E81EC
S113235057FD0AC02F813885421753070CF49A01A0
S1132360020F131FF80110822E96E4E00C948214DD
S1132370AEE0B0E0EEEBF1E10C9466140D891E8939
S113238086E08C831A8309838FEF9FE79E838D8376
S1132390AE01475E5F4FCE0101966F89788D0E9432
S11323A0DA11EF81F885E00FF11F10822E96E4E038
S11323B00C948214ADE0B0E0E0EEF1E10C9458141A
S11323C03C017D876C875A01FC0117821682838148
S11323D081FFC8C12E010894411C511CF301938153
S11323E0EC85FD8593FD859193FF8191FD87EC87B5
S11323F0882309F4B3C1853241F493FD859193FF99
S11324008191FD87EC87853229F490E0B3010E9425
S1132410CE13E4CFFF24EE2410E01032B0F48B325C
S113242069F08C3228F4803251F0833271F40BC09D
S11324308D3239F0803349F411602CC0126014607D
S113244029C0186027C0106125C017FD2EC0282F91
S113245020532A3098F416FF08C08F2D880FF82EC9
S1132460FF0CFF0CF80EF20E15C08E2D880FE82E0F
S1132470EE0CEE0CE80EE20E10620CC08E3221F46B
S113248016FD6CC1106406C08C3611F4106802C0CD
S1132490883659F4EC85FD8593FD859193FF8191F0
S11324A0FD87EC87882309F0B8CF982F9554933093
S11324B018F09052933038F424E030E0A20EB31EAA
S11324C03FE339830FC0833631F0833781F083359E
S11324D009F05AC022C0F5018081898322E030E0EE
S11324E0A20EB31E21E0C22ED12C420114C092E0F0
S11324F0292E312C2A0C3B1CF5018080918016FF7B
S113250003C06F2D70E002C06FEF7FEFC4010E9423
S1132510C3136C0151011F7715C082E0282E312CA2
S11325202A0C3B1CF5018080918016FF03C06F2D9F
S113253070E002C06FEF7FEFC4010E94B8136C011A
S11325401068510113FD1CC006C080E290E0B30185
S11325500E94CE13EA948E2D90E0C816D906A8F3F3
S11325600FC0F40117FD859117FF81914F0190E091
S1132570B3010E94CE13E110EA940894C108D10873
S1132580C114D10471F7E7C0843611F0893651F5CE
S1132590F50117FF07C080819181A281B38124E0F6
S11325A030E008C080819181AA2797FDA095BA2FB9
S11325B022E030E0A20EB31E012F0F76B7FF08C051
S11325C0B095A095909581959F4FAF4FBF4F0068F0
S11325D0BC01CD01A2012AE030E00E94FA13D82EFA
S11325E0D4183FC0853721F41F7E2AE030E020C094
S11325F0197F8F36A9F0803720F4883509F0AEC0F2
S11326000BC0803721F0883709F0A8C001C01061E1
S113261014FF09C0146007C014FF08C0166006C088
S113262028E030E005C020E130E002C020E132E0E3
S1132630F50117FF07C0608171818281938144E0B5
S113264050E006C06081718180E090E042E050E09B
S1132650A40EB51EA2010E94FA13D82ED418012F7D
S11326600F7706FF09C00E7FDF1430F404FF06C0A5
S113267002FD04C00F7E02C01D2D01C01F2D802F3E
S113268090E004FF0CC0FE01ED0DF11D208120330C
S113269011F4097E09C002FF06C01E5F05C08678DA
S11326A09070009709F01F5F802E992403FD12C0DB
S11326B000FF0DC0FD2C1E1550F4FE0CF11A1E2D4A
S11326C006C080E290E0B3010E94CE131F5F1E1586
S11326D0C0F304C01E1510F4E11A01C0EE2484FEF8
S11326E00FC080E390E0B3010E94CE1382FE1FC0AE
S11326F081FE03C088E590E010C088E790E00DC03B
S1132700C40186789070009791F081FC02C080E249
S113271001C08BE207FD8DE290E0B3010E94CE136D
S113272006C080E390E0B3010E94CE13FA94DF1454
S1132730C0F3DA94F201ED0DF11D808190E0B30154
S11327400E94CE13DD20A9F706C080E290E0B30119
S11327500E94CE13EA94EE20C1F740CEF3018681A5
S1132760978102C08FEF9FEF2D96E2E10C947414D1
S1132770FC010590615070400110D8F78095909548
S11327808E0F9F1F0895FC0161507040019001104D
S1132790D8F7809590958E0F9F1F08950F931F93E0
S11327A0CF93DF938C01EB018B8181FF1BC082FFF0
S11327B00DC02E813F818C819D812817390764F4D7
S11327C0E881F9810193F983E88306C0E885F985F6
S11327D0802F0995009731F48E819F8101969F8304
S11327E08E8302C00FEF1FEFC801DF91CF911F91BD
S11327F00F910895FA01AA27283051F1203181F16F
S1132800E8946F936E7F6E5F7F4F8F4F9F4FAF4FF4
S1132810B1E03ED0B4E03CD0670F781F891F9A1F07
S1132820A11D680F791F8A1F911DA11D6A0F711DBB
S1132830811D911DA11D20D009F468943F912AE0C7
S1132840269F11243019305D3193DEF6CF010895AF
S1132850462F4770405D4193B3E00FD0C9F7F6CFE0
S1132860462F4F70405D4A3318F0495D31FD4052A8
S1132870419302D0A9F7EACFB4E0A695979587953E
S113288077956795BA95C9F700976105710508951D
S11328909B01AC010A2E06945795479537952795C9
S11328A0BA95C9F7620F731F841F951FA01D089561
S11328B02F923F924F925F926F927F928F929F924C
S11328C0AF92BF92CF92DF92EF92FF920F931F933A
S11328D0CF93DF93CDB7DEB7CA1BDB0B0FB6F894EB
S11328E0DEBF0FBECDBF09942A88398848885F842B
S11328F06E847D848C849B84AA84B984C884DF809C
S1132900EE80FD800C811B81AA81B981CE0FD11D7F
S11329100FB6F894DEBF0FBECDBFED010895F89455
S1052920FFCFE3
S113292244697374616E63653D00434D0020202049
S113293220466F72776172642020202000202020BC
S11329422020204261636B20202020202000525F3F
S113295244697374616E63653D004C5F44697374CA
S1132962616E63653D0020205475726E2052696762
S113297268742D3E3E2000203C3C2D205475726E1E
S1132982204C656674202000556C747261736F6EFE
S11329926963204F4E00426C7565546F6F746820F2
S11329A24F4E0032002D0000257325642E2530344D
S10929B26400256400002E
S9030000FC
