:100000000C942A000C94AB040C9441090C946A09DA
:100010000C944B0B0C940F0B0C9447000C94470062
:100020000C9447000C9447000C94F6090C94C609F4
:100030000C9447000C94C70B0C94F00B0C94190C07
:100040000C94A8050C9447000C9447000C944700AE
:100050000C94470011241FBECFE5D8E0DEBFCDBF12
:1000600010E0A0E6B0E0E6E1F3E202C005900D92F8
:10007000AC38B107D9F710E0ACE8B0E001C01D9290
:10008000A53BB107E1F70E94BA000C9489110C94CA
:10009000000086E00E94420C0895CF93DF930F92F8
:1000A000CDB7DEB7CE0101960E946B0189818835FC
:1000B00009F444C0893568F48535D1F0863518F4E3
:1000C000833481F729C0863509F44AC0873551F752
:1000D00019C0863709F449C0873728F4833629F1D7
:1000E000853701F70AC0873791F08837D9F62FC0D6
:1000F00080E062E00E940704D5CF80E062E00E94C9
:100100000F04D0CF80E061E00E940704CBCF80E0F5
:1001100061E00E940F04C6CF80E064E00E94070403
:1001200080E063E00E940F04BDCF80E064E00E94A5
:100130000F0480E063E00E940F04B4CF80E064E02D
:100140000E940F0480E063E00E940704ABCF80E0D0
:1001500064E00E940F0480E063E00E940F04A2CFDD
:1001600080E065E00E948F019DCF80E065E00E9405
:10017000970198CFCF93DF9300D00F92CDB7DEB722
:100180000E94490C0E94930980E063E00E94B1083C
:1001900081E063E00E94B10889E490E00E943309A5
:1001A00083E063E00E94710183E063E0AE014F5F92
:1001B0005F4F20E00E9480010E941C0280E060E00E
:1001C0000E94D50380E062E00E94FF0380E064E0CB
:1001D0000E94FF0380E063E00E94FF0380E061E093
:1001E0000E94FF0380E065E00E94870180E064E0F8
:1001F0000E940F0480E063E00E940F0480E062E050
:100200000E940F0480E061E00E940F0480E065E03E
:100210000E94970180E0BE016E5F7F4F0E94E10364
:1002200081E061E00E945E038A819B810E948103DC
:100230008FEF9DE3A9E481509040A040E1F700C01A
:1002400000008A819B81A1E0843F9A0728F080E02A
:1002500061E00E94070404C080E061E00E940F0496
:1002600089818823E9F481E062E00E945E0380E6F0
:1002700090E00E94B7028FEF97EAA1E6815090408C
:10028000A040E1F700C000000E941E040E94660426
:1002900080E090E00F900F900F90DF91CF91089544
:1002A00081E062E00E945E038EE690E00E94B70269
:1002B0008FEF97EAA1E681509040A040E1F700C09F
:1002C00000000E9465010E944D000E94880B089565
:1002D0000E949D0B08950E94950B08950E94A20B09
:1002E0000895843028F4683018F440E00E94D10565
:1002F0000895843020F4683010F40E949F07089518
:10030000843020F4683010F40E944B070895843044
:1003100028F4683018F441E00E94D1050895843033
:1003200028F4683018F441E00E946706089584308C
:1003300028F4683018F440E00E946706089584307D
:1003400020F4683010F40E94FD060895CF93C82F62
:1003500080FD06C082E064E040E00E94670605C0C0
:1003600082E064E041E00E9467068C2F869580FD64
:1003700006C082E065E040E00E94670605C082E0BA
:1003800065E041E00E9467068C2F8695869580FD8A
:1003900006C082E066E040E00E94670605C082E099
:1003A00066E041E00E946706C695C695C695C0FD09
:1003B00006C082E067E040E00E94670605C082E078
:1003C00067E041E00E946706CF910895CF93C82F60
:1003D00081E061E040E00E94670681E062E040E089
:1003E0000E9467068C2F82958F700E94A60181E083
:1003F00063E041E00E9467068FE99FE00197F1F713
:1004000000C0000081E063E040E00E9467068C2F9E
:100410000E94A60181E063E041E00E9467068FE947
:100420009FE00197F1F700C0000081E063E040E049
:100430000E946706CF91089581E061E041E00E944B
:10044000D10581E062E041E00E94D10581E063E0F6
:1004500041E00E94D10582E064E041E00E94D105C4
:1004600082E065E041E00E94D10582E066E041E083
:100470000E94D10582E067E041E00E94D1058FE74C
:1004800095EBA1E081509040A040E1F700C0000052
:1004900081E061E040E00E94670681E062E040E0C8
:1004A0000E94670682E00E94A60181E063E041E0CD
:1004B0000E946706AFE9BFE01197F1F700C00000A6
:1004C00081E063E040E00E94670688E20E94E60166
:1004D000B0EFBA95F1F78CE00E94E60180EF8A95C3
:1004E000F1F781E00E94E601AFE3BFE11197F1F778
:1004F00000C0000086E00E94E601B0EFBA95F1F777
:100500000895CF93C82F81E061E041E00E94670623
:1005100081E062E040E00E9467068C2F82958F7038
:100520000E94A60181E063E041E00E9467068FE936
:100530009FE00197F1F700C0000081E063E040E038
:100540000E9467068C2F0E94A60181E063E041E0D3
:100550000E9467068FE99FE00197F1F700C0000055
:1005600081E063E040E00E946706CF910895CF9359
:10057000DF93EC018881882331F021960E9481026B
:1005800089918823D9F7DF91CF9108958F929F9217
:10059000AF92BF92CF92DF92EF92FF920F931F9391
:1005A000CF93DF93CDB7DEB760970FB6F894DEBF79
:1005B0000FBECDBF6B017C0120E030E0A9010E949D
:1005C000B30C88235CF4F7FAF094F7F8F0940F2E4C
:1005D000FBE78F2EF0E09F2EF02D06C00F2EFDE7DB
:1005E0008F2EF0E09F2EF02DC701B6010E941F0D47
:1005F000DC01CB012DB73EB72A5030400FB6F8943E
:100600003EBF0FBE2DBF0DB71EB70F5F1F4F5E0160
:100610000894A11CB11CEDB7FEB7B282A1822EE7EF
:1006200030E0F80133832283958284829783868326
:10063000BC0180E090E00E944B0D9B01AC01C70122
:10064000B6010E944E0C20E030E44CE156E40E94DA
:10065000FD0D0E941F0DDC01CB01F8019187808701
:100660000E94B20E2DB73EB7265F3F4F0FB6F894EB
:100670003EBF0FBE2DBFC5010E94B70260960FB6E8
:10068000F894DEBF0FBECDBFDF91CF911F910F91C8
:10069000FF90EF90DF90CF90BF90AF909F908F90A2
:1006A000089581E00E94E6018FE39FE10197F1F751
:1006B00000C0000080E80E94E6010895CF93DF9318
:1006C00000D000D0CDB7DEB790E8998390EC9A8344
:1006D00094E99B8394ED9C838150FE01E60FF11D0C
:1006E0009081890F0E94E6018FE99FE00197F1F761
:1006F00000C000000F900F900F900F90DF91CF91EE
:1007000008950F931F93CF93DF93CDB7DEB7A097D4
:100710000FB6F894DEBF0FBECDBF2DB73EB7285041
:1007200030400FB6F8943EBF0FBE2DBFEDB7FEB7F9
:1007300031968E010F5F1F4FADB7BEB712961C9357
:100740000E93119721E130E03383228328E830E0D3
:1007500035832483978386830E94820E2DB73EB70C
:10076000285F3F4F0FB6F8943EBF0FBE2DBFC801A4
:100770000E94B702A0960FB6F894DEBF0FBECDBFA1
:10078000DF91CF911F910F910895CF93DF93EC01EB
:10079000862F642F0E945E03CE010E948103DF91A9
:1007A000CF9108950E94E6010895843048F468309E
:1007B00038F440E00E94D10581E060E80E9409051C
:1007C00008950F931F93CF93DF9300D0CDB7DEB77B
:1007D0008B016115710561F0883050F4BE016F5FC7
:1007E0007F4F0E944E0589819A81F8019183808311
:1007F0000F900F90DF91CF911F910F91089584304A
:1008000028F4683018F441E00E94D105089584303E
:1008100028F4683018F441E00E9467060895843097
:1008200028F4683018F440E00E9467060895843088
:1008300020F4683010F40E94FD0608950E94340AE6
:1008400083E065E041E00E94D1050E944F0A0895CF
:1008500060E070E080E090E442E350E00E94660ACD
:10086000089560E070E080E491E442E350E00E948B
:10087000660A089560E070E080EE90E442E350E0A4
:100880000E94660A0895853BB0F4682F70E080E00E
:1008900090E00E944B0D20E030E040E951E40E94DE
:1008A000B70C20E030E040E050E40E944F0C42E3FF
:1008B00050E00E94660A089580918C0090918D000E
:1008C000019690938D0080938C00089583E062E000
:1008D00040E00E94D10581E066E041E00E94D10540
:1008E0000E941C020E9493090E94970980E063E025
:1008F0000E94B1088CE594E00E94BF090895CF934F
:10090000DF93EC0180918E0090918F000097A1F40D
:1009100081E066E041E00E94670685E38A95F1F791
:10092000000081E066E040E00E94670681E090E020
:1009300090938F0080938E0080919100909192000F
:10094000A0919300B091940088839983AA83BB837C
:10095000DF91CF9108951F920F920FB60F9211243D
:100960002F933F934F935F936F937F938F939F93B7
:10097000AF93BF93EF93FF93809190008F5F80932D
:10098000900080919000813031F410928D0010928F
:100990008C000E94A20980919000823049F50E944B
:1009A000AC0982B770918C0060E0680F711D80E027
:1009B00090E00E944B0D28E23EE74CE85DE30E9488
:1009C000FD0D462F572F682F792F4093910050939C
:1009D0009200609393007093940012BE1092900066
:1009E00010928F0010928E0010928D0010928C0049
:1009F000FF91EF91BF91AF919F918F917F916F91F7
:100A00005F914F913F912F910F900FBE0F901F90CC
:100A10001895823029F0833049F0813049F403C0C1
:100A20003E983F9805C03E9A3F9802C03E9A3F9A32
:100A30003D9835983398862F82508F3768F560310E
:100A4000E1F0613138F4643081F0683091F0623067
:100A500019F507C06034C9F06038D9F06032E1F4AC
:100A600010C030983198329817C03098319A329827
:100A700013C0309A319A32980FC030983198329A18
:100A80000BC0309A3198329A07C03098319A329A16
:100A900003C0309A319A329A379A089561157105D8
:100AA00009F44EC0803208F04BC0833011F184301D
:100AB00028F4813091F08230B0F409C0853029F1FA
:100AC0008530E8F0863039F1873081F52AC03898D2
:100AD00039983A983B983C9829C0389A39983A986E
:100AE0003B983C9823C03898399A3A983B983C9860
:100AF0001DC0389A399A3A983B983C9817C0389854
:100B000039983A9A3B983C9811C0389A39983A9A51
:100B10003B983C980BC03898399A3A9A3B983C9845
:100B200005C0389A399A3A9A3B983C98369A86B1D9
:100B300084FFFDCF84B195B1FB0191838083349A0A
:100B40000895009721F09093960080939500089562
:100B50001F920F920FB60F9211242F933F934F9332
:100B60005F936F937F938F939F93AF93BF93EF9315
:100B7000FF93E0919500F0919600309709F0099568
:100B8000FF91EF91BF91AF919F918F917F916F9165
:100B90005F914F913F912F910F900FBE0F901F903B
:100BA0001895843008F08BC0683008F08AC0423055
:100BB00008F089C0813041F1813038F0823009F489
:100BC00041C0833009F081C05BC0413071F42AB369
:100BD00081E090E0AC0102C0440F551F6A95E2F736
:100BE000BA01622B6ABB80E008952AB381E090E0ED
:100BF000AC0102C0440F551F6A95E2F7BA01609537
:100C000062236ABB80E00895413069F447B321E074
:100C100030E0C90102C0880F991F6A95E2F7842B62
:100C200087BB80E0089527B381E090E0AC0102C06B
:100C3000440F551F6A95E2F7BA016095622367BBBE
:100C400080E00895413069F444B321E030E0C90107
:100C500002C0880F991F6A95E2F7842B84BB80E05D
:100C6000089524B381E090E0AC0102C0440F551F09
:100C70006A95E2F7BA016095622364BB80E008954B
:100C8000413071F421B381E090E0AC0102C0440F27
:100C9000551F6A95E2F7BA01622B61BB80E00895A7
:100CA00021B381E090E0AC0102C0440F551F6A956A
:100CB000E2F7BA016095622361BB80E0089581E0AC
:100CC000089581E0089581E0089580E008958430DA
:100CD00008F08BC0683008F08AC0423008F089C044
:100CE000813041F1813038F0823009F441C08330E5
:100CF00009F081C05BC0413071F42BB381E090E01A
:100D0000AC0102C0440F551F6A95E2F7BA01622B8D
:100D10006BBB80E008952BB381E090E0AC0102C092
:100D2000440F551F6A95E2F7BA01609562236BBBC9
:100D300080E00895413069F448B321E030E0C90112
:100D400002C0880F991F6A95E2F7842B88BB80E068
:100D5000089528B381E090E0AC0102C0440F551F14
:100D60006A95E2F7BA016095622368BB80E0089556
:100D7000413069F445B321E030E0C90102C0880F79
:100D8000991F6A95E2F7842B85BB80E0089525B30F
:100D900081E090E0AC0102C0440F551F6A95E2F774
:100DA000BA016095622365BB80E00895413071F41B
:100DB00022B381E090E0AC0102C0440F551F6A9558
:100DC000E2F7BA01622B62BB80E0089522B381E0B2
:100DD00090E0AC0102C0440F551F6A95E2F7BA01DA
:100DE0006095622362BB80E0089581E0089581E010
:100DF000089581E0089580E00895843008F045C0AA
:100E0000683008F044C08130B1F0813030F0823079
:100E100001F1833009F03DC02AC02BB381E090E09E
:100E2000AC0102C0440F551F6A95E2F7BA01622770
:100E30006BBB80E0089528B381E090E0AC0102C074
:100E4000440F551F6A95E2F7BA01622768BB80E03C
:100E5000089525B381E090E0AC0102C0440F551F16
:100E60006A95E2F7BA01622765BB80E0089522B374
:100E700081E090E0AC0102C0440F551F6A95E2F793
:100E8000BA01622762BB80E0089581E0089581E0A5
:100E9000089580E00895843008F049C0683008F073
:100EA00048C04115510509F446C08130B1F0813088
:100EB00030F0823001F1833009F03FC02AC089B39D
:100EC00090E09C0102C0359527956A95E2F7B9013B
:100ED0006170FA01608380E0089586B390E09C0120
:100EE00002C0359527956A95E2F7B9016170FA015C
:100EF000608380E0089583B390E09C0102C0359543
:100F000027956A95E2F7B9016170FA01608380E084
:100F1000089580B390E09C0102C0359527956A95AD
:100F2000E2F7B9016170FA01608380E0089581E021
:100F3000089581E0089581E0089580E00895843067
:100F400008F045C0683008F044C08130B1F081300D
:100F500030F0823001F1833009F03DC02AC02BB35C
:100F600081E090E0AC0102C0440F551F6A95E2F7A2
:100F7000BA01622B6BBB80E0089528B381E090E05A
:100F8000AC0102C0440F551F6A95E2F7BA01622B0B
:100F900068BB80E0089525B381E090E0AC0102C019
:100FA000440F551F6A95E2F7BA01622B65BB80E0DA
:100FB000089522B381E090E0AC0102C0440F551FB8
:100FC0006A95E2F7BA01622B62BB80E0089581E086
:100FD000089581E0089580E008958430A8F5813077
:100FE00091F0813028F08230C9F0833079F521C04A
:100FF0006F3F29F48AB38FEF8ABB80E008958AB3EC
:101000001ABA80E008956F3F29F487B38FEF87BB4A
:1010100080E0089587B317BA80E008956F3F29F400
:1010200084B38FEF84BB80E0089584B314BA80E06A
:1010300008956F3F29F481B38FEF81BB80E008955D
:1010400081B311BA80E0089581E0089580E00895A9
:101050008430A8F4813051F0813028F0823049F09A
:10106000833079F409C06BBB80E0089568BB80E0F1
:10107000089565BB80E0089562BB80E0089581E03B
:10108000089580E00895843000F561157105F9F048
:10109000813061F0813028F0823069F08330C9F40A
:1010A0000FC08BB3FB01808380E0089588B3FB0100
:1010B000808380E0089585B3FB01808380E00895FC
:1010C00082B3FB01808380E0089581E0089581E090
:1010D000089580E008958430E8F4813061F0813033
:1010E00028F0823069F08330B9F40FC08BB380955B
:1010F0008BBB80E0089588B3809588BB80E008951D
:1011000085B3809585BB80E0089582B3809582BBCE
:1011100080E0089581E0089580E008958430E8F447
:10112000813061F0813028F0823069F08330B9F489
:101130000FC08BB38FEF8BBB80E0089588B38FEF28
:1011400088BB80E0089585B38FEF85BB80E008956C
:1011500082B38FEF82BB80E0089581E0089580E044
:101160000895813071F1813020F0823009F060C043
:1011700050C0613071F0613028F0623089F0633026
:10118000E1F415C085B7816085BF85B7826085BFF2
:1011900014C085B78E7F85BF85B7826085BF0DC0BF
:1011A00085B78E7F85BF85B78D7F85BF06C085B724
:1011B000816085BF85B78D7F85BF8BB780648BBF0E
:1011C0000895613071F0613028F0623089F0633049
:1011D000E1F415C085B7846085BF85B7886085BF99
:1011E00014C085B78B7F85BF85B7886085BF0DC06C
:1011F00085B78B7F85BF85B7877F85BF06C085B7DD
:10120000846085BF85B7877F85BF8BB780688BBFBC
:101210000895662319F0613041F404C084B78064F6
:1012200084BF03C084B78F7B84BF8BB780628BBFC2
:101230000895813049F0813018F0823061F408C09F
:101240008BB78F7B8BBF08958BB78F778BBF08953C
:101250008BB78F7D8BBF0895009721F090939800F6
:10126000809397000895009721F090939A008093BF
:1012700099000895009721F090939C0080939B0023
:1012800008951F920F920FB60F9211242F933F9340
:101290004F935F936F937F938F939F93AF93BF937E
:1012A000EF93FF93E0919900F0919A00309709F045
:1012B0000995FF91EF91BF91AF919F918F917F9190
:1012C0006F915F914F913F912F910F900FBE0F90B3
:1012D0001F9018951F920F920FB60F9211242F9303
:1012E0003F934F935F936F937F938F939F93AF93AE
:1012F000BF93EF93FF93E0919B00F0919C00309798
:1013000009F00995FF91EF91BF91AF919F918F9156
:101310007F916F915F914F913F912F910F900FBEF1
:101320000F901F9018958FB780688FBF089583B76F
:101330008F7B83BF83B7877F83BF12BE89B78160EE
:1013400089BF089583B7816083BF83B7826083BFFD
:1013500083B78B7F83BF089583B78E7F83BF83B7A7
:101360008D7F83BF83B78B7F83BF08958CBF089524
:1013700029EF2CBF90939E0080939D0008950097C5
:1013800021F09093A00080939F0008951F920F92E8
:101390000FB60F9211242F933F934F935F936F9348
:1013A0007F938F939F93AF93BF93EF93FF9380911E
:1013B000A1009091A20001969093A2008093A100B9
:1013C000E0919F00F091A0000995FF91EF91BF91EE
:1013D000AF919F918F917F916F915F914F913F91CD
:1013E0002F910F900FBE0F901F9018951F920F9284
:1013F0000FB60F9211242F933F934F935F936F93E8
:101400007F938F939F93AF93BF93EF93FF938091BD
:10141000A3009091A40001969093A4008093A30050
:1014200020919D0030919E008217930749F41092FD
:10143000A4001092A300E0919F00F091A0000995F4
:10144000FF91EF91BF91AF919F918F917F916F919C
:101450005F914F913F912F910F900FBE0F901F9072
:1014600018958FEF8CBF08958FB58E7F8FBD8FB588
:101470008D7F8FBD8EB5877F8EBD8EB58F7E8EBDE5
:101480008EB581608EBD8EB582608EBD8EB58B7F30
:101490008EBD1DBC1CBC89B7846089BF08958EB504
:1014A00081608EBD8EB582608EBD8EB58B7F8EBD08
:1014B00008958EB58E7F8EBD8EB58D7F8EBD8EB517
:1014C0008B7F8EBD08959BBD8ABD0895CF92DF921C
:1014D000EF92FF92CF93DF936B017C01EA0120E052
:1014E00030E048EC52E40E94B30C18165CF19E0107
:1014F00040E050E060E970ED83E090E00E94600E13
:101500002150304037BD26BD66B577B56F5F7F4F40
:1015100080E090E00E944B0DA70196010E94FD0D16
:1015200020E030E048EC52E40E94B70C20E030E0CC
:1015300040E85FE30E944E0C0E941F0DDC01CB01CE
:101540009BBD8ABDDF91CF91FF90EF90DF90CF9050
:10155000089585B5806485BD85B5877F85BD85B5D2
:10156000806185BD85B5806285BD089585B58E7F16
:1015700085BD85B58D7F85BD85B5846085BD0895A4
:1015800085B58E7F85BD85B58D7F85BD85B58B7F06
:1015900085BD089529EF23BD9093A6008093A500F3
:1015A000089520E030E048EC52E40E94B70C20E0BF
:1015B00030E040E853E40E94FD0D9B01AC0160E087
:1015C00070E08FE793E40E944E0C0E941F0D63BDF4
:1015D000089520E030E048EC52E40E94B70C20E08F
:1015E00030E040E853E40E94FD0D9B01AC0160E057
:1015F00070E080E893E40E944E0C0E941F0D63BDD2
:101600000895009721F09093A8008093A700089573
:10161000009721F09093AA008093A90008951F924B
:101620000F920FB60F9211242F933F934F935F9316
:101630006F937F938F939F93AF93BF93EF93FF939A
:101640008091AB009091AC0001969093AC00809398
:10165000AB0023E0813D920769F41092AC00109238
:10166000AB0081E784BDE091A700F091A80030971E
:1016700009F00995FF91EF91BF91AF919F918F91E3
:101680007F916F915F914F913F912F910F900FBE7E
:101690000F901F9018951F920F920FB60F92112462
:1016A0002F933F934F935F936F937F938F939F936A
:1016B000AF93BF93EF93FF938091AD009091AE00F5
:1016C00001969093AE008093AD002091A5003091DB
:1016D000A6008217930759F41092AE001092AD0045
:1016E000E091A900F091AA00309709F00995FF91C7
:1016F000EF91BF91AF919F918F917F916F915F918A
:101700004F913F912F910F900FBE0F901F90189502
:10171000529886E880BD87E689B910BC5998579AD7
:10172000569A559A539A549A0895009729F05F9BB8
:10173000FECF2CB1FC01208308958CB98BB185FFBD
:10174000FDCF08950F931F93CF938C01FC018081EF
:10175000882351F0C0E00E949D0BCF5FF801EC0F91
:10176000F11D80818823B9F7CF911F910F910895C2
:101770009093B0008093AF0008959093B20080934F
:10178000B10008959093B4008093B30008951F9220
:101790000F920FB60F9211242F933F934F935F93A5
:1017A0006F937F938F939F93AF93BF93EF93FF9329
:1017B000E091AF00F091B000309709F00995FF91EA
:1017C000EF91BF91AF919F918F917F916F915F91B9
:1017D0004F913F912F910F900FBE0F901F90189532
:1017E0001F920F920FB60F9211242F933F934F9396
:1017F0005F936F937F938F939F93AF93BF93EF9379
:10180000FF93E091B100F091B200309709F0099593
:10181000FF91EF91BF91AF919F918F917F916F91C8
:101820005F914F913F912F910F900FBE0F901F909E
:1018300018951F920F920FB60F9211242F933F937A
:101840004F935F936F937F938F939F93AF93BF93C8
:10185000EF93FF93E091B300F091B400309709F05B
:101860000995FF91EF91BF91AF919F918F917F91DA
:101870006F915F914F913F912F910F900FBE0F90FD
:101880001F90189591B5892B81BD81B5886081BD68
:10189000089581B5886181BD11BC08955058BB275A
:1018A000AA270ED070C161D130F066D120F031F49A
:1018B0009F3F11F41EF456C10EF4E095E7FB4CC1B6
:1018C000E92F72D180F3BA1762077307840795076F
:1018D00018F071F49EF58AC10EF4E0950B2EBA2F24
:1018E000A02D0B01B90190010C01CA01A001112426
:1018F000FF27591B99F0593F50F4503E68F11A16D2
:10190000F040A22F232F342F4427585FF3CF469562
:1019100037952795A795F0405395C9F77EF41F1684
:10192000BA0B620B730B840BBAF09150A1F0FF0F4E
:10193000BB1F661F771F881FC2F70EC0BA0F621F3A
:10194000731F841F48F4879577956795B795F7952A
:101950009E3F08F0B3CF9395880F08F09927EE0FBC
:10196000979587950895D4D008F481E008950CD018
:101970000AC102D140F0F9D030F021F45F3F19F0F4
:10198000EBC0511134C1EEC00FD198F39923C9F3C4
:101990005523B1F3951B550BBB27AA276217730775
:1019A000840738F09F5F5F4F220F331F441FAA1F29
:1019B000A9F333D00E2E3AF0E0E830D091505040E9
:1019C000E695001CCAF729D0FE2F27D0660F771F97
:1019D000881FBB1F261737074807AB07B0E809F079
:1019E000BB0B802DBF01FF2793585F4F2AF09E3F0E
:1019F000510568F0B1C0FBC05F3FECF3983EDCF3EB
:101A0000869577956795B795F7959F5FC9F7880F86
:101A1000911D9695879597F90895E1E0660F771FD8
:101A2000881FBB1F621773078407BA0720F0621B69
:101A3000730B840BBA0BEE1F88F7E0950895BCD0AA
:101A400088F09F5790F0B92F9927B751A0F0D1F0A7
:101A5000660F771F881F991F1AF0BA95C9F712C031
:101A6000B13081F0C3D0B1E00895C0C0672F782FA6
:101A70008827B85F39F0B93FCCF38695779567959D
:101A8000B395D9F73EF490958095709561957F4F09
:101A90008F4F9F4F0895E89409C097FB3EF49095AF
:101AA0008095709561957F4F8F4F9F4F9923A9F037
:101AB000F92F96E9BB279395F695879577956795C6
:101AC000B795F111F8CFFAF4BB0F11F460FF1BC00A
:101AD0006F5F7F4F8F4F9F4F16C0882311F096E99D
:101AE00011C0772321F09EE8872F762F05C066234B
:101AF00071F096E8862F70E060E02AF09A95660F04
:101B0000771F881FDAF7880F9695879597F90895BC
:101B1000990F0008550FAA0BE0E8FEEF16161706FE
:101B2000E807F907C0F012161306E407F50798F066
:101B3000621B730B840B950B39F40A2661F0232B7F
:101B4000242B252B21F408950A2609F4A140A695FB
:101B50008FEF811D811D089597F99F6780E870E0E0
:101B600060E008959FEF80EC089500240A94161613
:101B7000170618060906089500240A94121613067B
:101B8000140605060895092E0394000C11F4882309
:101B900052F0BB0F40F4BF2B11F460FF04C06F5F25
:101BA0007F4F8F4F9F4F089557FD9058440F551FFB
:101BB00059F05F3F71F04795880F97FB991F61F0CF
:101BC0009F3F79F087950895121613061406551F46
:101BD000F2CF4695F1DF08C0161617061806991FB2
:101BE000F1CF86957105610508940895E894BB27A7
:101BF00066277727CB0197F908950BD0C4CFB5DFBF
:101C000028F0BADF18F0952309F0A6CFABCF112446
:101C1000EECFCADFA0F3959FD1F3950F50E0551F8B
:101C2000629FF001729FBB27F00DB11D639FAA2731
:101C3000F00DB11DAA1F649F6627B00DA11D661F80
:101C4000829F2227B00DA11D621F739FB00DA11DA1
:101C5000621F839FA00D611D221F749F3327A00D5B
:101C6000611D231F849F600D211D822F762F6A2FF7
:101C700011249F5750408AF0E1F088234AF0EE0F7C
:101C8000FF1FBB1F661F771F881F91505040A9F789
:101C90009E3F510570F060CFAACF5F3FECF3983EB6
:101CA000DCF3869577956795B795F795E7959F5FF0
:101CB000C1F7FE2B880F911D9695879597F908958A
:101CC000A1E21A2EAA1BBB1BFD010DC0AA1FBB1F40
:101CD000EE1FFF1FA217B307E407F50720F0A21BB2
:101CE000B30BE40BF50B661F771F881F991F1A941F
:101CF00069F760957095809590959B01AC01BD0149
:101D0000CF010895AEE0B0E0E8E8FEE00C94601189
:101D10000D891E898F89988D26E02C831A8309836B
:101D200097FF02C080E090E801979E838D83AE010B
:101D3000455E5F4FCE010196698D7A8D0E94D40E6B
:101D40004D815E8157FD0AC02F81388542175307A8
:101D50000CF49A01020F131FF80110822E96E4E092
:101D60000C947C11AEE0B0E0E8EBFEE00C94601166
:101D70000D891E8986E08C831A8309838FEF9FE784
:101D80009E838D83AE01475E5F4FCE0101966F89C2
:101D9000788D0E94D40EEF81F885E00FF11F10823C
:101DA0002E96E4E00C947C11ADE0B0E0EAEDFEE0AC
:101DB0000C9452113C017D876C875A01FC011782FB
:101DC0001682838181FFC8C12E010894411C511CD9
:101DD000F3019381EC85FD8593FD859193FF8191BE
:101DE000FD87EC87882309F4B3C1853241F493FD64
:101DF000859193FF8191FD87EC87853229F490E0EE
:101E0000B3010E94C810E4CFFF24EE2410E010328A
:101E1000B0F48B3269F08C3228F4803251F0833286
:101E200071F40BC08D3239F0803349F411602CC04D
:101E30001260146029C0186027C0106125C017FD0A
:101E40002EC0282F20532A3098F416FF08C08F2D5B
:101E5000880FF82EFF0CFF0CF80EF20E15C08E2D19
:101E6000880FE82EEE0CEE0CE80EE20E10620CC0AD
:101E70008E3221F416FD6CC1106406C08C3611F44C
:101E8000106802C0883659F4EC85FD8593FD859174
:101E900093FF8191FD87EC87882309F0B8CF982FB5
:101EA0009554933018F09052933038F424E030E099
:101EB000A20EB31E3FE339830FC0833631F0833760
:101EC00081F0833509F05AC022C0F50180818983F1
:101ED00022E030E0A20EB31E21E0C22ED12C42013E
:101EE00014C092E0292E312C2A0C3B1CF501808075
:101EF000918016FF03C06F2D70E002C06FEF7FEF7F
:101F0000C4010E94BD106C0151011F7715C082E011
:101F1000282E312C2A0C3B1CF5018080918016FF65
:101F200003C06F2D70E002C06FEF7FEFC4010E940D
:101F3000B2106C011068510113FD1CC006C080E294
:101F400090E0B3010E94C810EA948E2D90E0C8166C
:101F5000D906A8F30FC0F40117FD859117FF8191F1
:101F60004F0190E0B3010E94C810E110EA94089478
:101F7000C108D108C114D10471F7E7C0843611F04B
:101F8000893651F5F50117FF07C080819181A28143
:101F9000B38124E030E008C080819181AA2797FDB9
:101FA000A095BA2F22E030E0A20EB31E012F0F76CB
:101FB000B7FF08C0B095A095909581959F4FAF4F02
:101FC000BF4F0068BC01CD01A2012AE030E00E94B1
:101FD000F410D82ED4183FC0853721F41F7E2AE094
:101FE00030E020C0197F8F36A9F0803720F4883583
:101FF00009F0AEC00BC0803721F0883709F0A8C0C7
:1020000001C0106114FF09C0146007C014FF08C0AC
:10201000166006C028E030E005C020E130E002C0D4
:1020200020E132E0F50117FF07C0608171818281F4
:10203000938144E050E006C06081718180E090E0CF
:1020400042E050E0A40EB51EA2010E94F410D82E6A
:10205000D418012F0F7706FF09C00E7FDF1430F46C
:1020600004FF06C002FD04C00F7E02C01D2D01C08A
:102070001F2D802F90E004FF0CC0FE01ED0DF11D1F
:102080002081203311F4097E09C002FF06C01E5FC3
:1020900005C086789070009709F01F5F802E992404
:1020A00003FD12C000FF0DC0FD2C1E1550F4FE0CE8
:1020B000F11A1E2D06C080E290E0B3010E94C81004
:1020C0001F5F1E15C0F304C01E1510F4E11A01C0F5
:1020D000EE2484FE0FC080E390E0B3010E94C8109C
:1020E00082FE1FC081FE03C088E590E010C088E733
:1020F00090E00DC0C40186789070009791F081FC4B
:1021000002C080E201C08BE207FD8DE290E0B301E6
:102110000E94C81006C080E390E0B3010E94C8107E
:10212000FA94DF14C0F3DA94F201ED0DF11D808111
:1021300090E0B3010E94C810DD20A9F706C080E23C
:1021400090E0B3010E94C810EA94EE20C1F740CE9F
:10215000F3018681978102C08FEF9FEF2D96E2E118
:102160000C946E11FC010590615070400110D8F77D
:10217000809590958E0F9F1F0895FC0161507040CF
:1021800001900110D8F7809590958E0F9F1F0895AC
:102190000F931F93CF93DF938C01EB018B8181FF12
:1021A0001BC082FF0DC02E813F818C819D8128172D
:1021B000390764F4E881F9810193F983E88306C063
:1021C000E885F985802F0995009731F48E819F81EC
:1021D00001969F838E8302C00FEF1FEFC801DF912E
:1021E000CF911F910F910895FA01AA27283051F13C
:1021F000203181F1E8946F936E7F6E5F7F4F8F4F38
:102200009F4FAF4FB1E03ED0B4E03CD0670F781F96
:10221000891F9A1FA11D680F791F8A1F911DA11D7B
:102220006A0F711D811D911DA11D20D009F46894B4
:102230003F912AE0269F11243019305D3193DEF65C
:10224000CF010895462F4770405D4193B3E00FD012
:10225000C9F7F6CF462F4F70405D4A3318F0495DFD
:1022600031FD4052419302D0A9F7EACFB4E0A695E0
:102270009795879577956795BA95C9F70097610502
:10228000710508959B01AC010A2E06945795479558
:1022900037952795BA95C9F7620F731F841F951F4D
:1022A000A01D08952F923F924F925F926F927F925E
:1022B0008F929F92AF92BF92CF92DF92EF92FF9256
:1022C0000F931F93CF93DF93CDB7DEB7CA1BDB0B02
:1022D0000FB6F894DEBF0FBECDBF09942A883988A7
:1022E00048885F846E847D848C849B84AA84B984AE
:1022F000C884DF80EE80FD800C811B81AA81B981BA
:10230000CE0FD11D0FB6F894DEBF0FBECDBFED01CD
:062310000895F894FFCFD0
:10231600556C747261736F6E6963204F4E00426C28
:102326007565546F6F7468204F4E002D000025733D
:0C23360025642E2530346400256400006E
:00000001FF
