S01600004175746F6E6F6D6F75735F4361722E737265635F
S11300000C9473000C94DA0A0C94B4060C94030B4D
S11300100C94CB0C0C948F0C0C9490000C949000CA
S11300200C9490000C9490000C947A0B0C942E0772
S11300300C9490000C94470D0C94700D0C94990D35
S11300400C9490000C9490000C9490000C949000EC
S11300500C949000D000990099009900990099009F
S113006099009900990099009900990099009900C4
S11300709900990099009900AF00F7009900990040
S1130080AC00B800BE00B500BB009900990099000F
S113009099009900990099009900B2009900E30031
S11300A01B01ED000901990099009900990099003C
S11300B0990099009900990099000001990099000C
S11300C09900990099009900990099009900990064
S11300D0990099009900C100990099009900E800DD
S11300E02001F200120111241FBECFE5D8E0DEBFCB
S11300F0CDBF10E0A0E6B0E0E2E9F6E202C0059070
S11301000D92AE39B107D9F710E0AEE9B0E001C005
S11301101D92A73CB107E1F70E9420020C944713FB
S11301200C940000CF93DF930F92CDB7DEB70E94FB
S11301308D05CE0101960E948202898190E0C097CC
S113014089349105B0F7865D9F4FFC01EE0FFF1FC8
S11301500590F491E02D09940E945905EACF0E947C
S11301607305E7CF0E948D05E4CF0E94A705E1CF78
S11301700E94C105DECF0E94F505DBCF0E94DB059E
S1130180D8CF80918B0090918C008436910588F6AD
S1130190019690938C0080938B000E941006C9CF27
S11301A080918B0090918C00009719F201979093A5
S11301B08C0080938B00009719F40E948D05B9CFB1
S11301C00E941006B6CF80E062E00E94F404B1CF32
S11301D080E062E00E94FC04ACCF80E061E00E9419
S11301E0F404A7CF80E061E00E94FC04A2CF80E089
S11301F064E00E94F40480E063E00E94FC0499CF70
S113020080E064E00E94FC0480E063E00E94FC045F
S113021090CF80E064E00E94FC0480E063E00E94F0
S1130220F40487CF80E064E00E94FC0480E063E093
S11302300E94FC047ECF80E065E00E94A60279CF94
S113024080E065E00E94AE0274CFCF93DF93CDB718
S1130250DEB72C970FB6F894DEBF0FBECDBF0F2EBE
S1130260F0E6EF2EF0E0FF2EF02D03E610E00F2E67
S1130270F6E6CF2EF0E0DF2EF02D0F2EF3E7AF2EB3
S1130280F0E0BF2EF02D0F2EF9E68F2EF0E09F2E1A
S1130290F02DCE0101960E948E0669817A818B81B0
S11302A09C8120E030E040EF51E40E94710F181669
S11302B01CF40E945905EDCF0E948D0580E062E098
S11302C00E94F40480E065E00E94A6020E94730587
S11302D08FEF99E6A8E181509040A040E1F700C07B
S11302E0000080E062E00E94FC0480E065E00E947F
S11302F0AE020E948D0560E070E084E393E40E9406
S11303001305CE0105960E948E0681E061E00E94ED
S11303107504C7010E94CE036D817E818F8198850B
S11303200E94DD03C8010E94CE038FEF93EDA0E38A
S113033081509040A040E1F700C0000060E070E010
S1130340CB010E941305CE0109960E948E0681E01E
S113035062E00E947504C6010E94CE0369857A8515
S11303608B859C850E94DD03C8010E94CE038FEF1C
S113037093EDA0E381509040A040E1F700C000005D
S11303806D817E818F81988529853A854B855C8531
S11303900E94710F181654F50E946804C4010E944B
S11303A0CE0360E070E084EB92E40E9413058FEFCB
S11303B091EEA4E081509040A040E1F700C000001D
S11303C00E94A70580E064E00E94F4048FEF99E6A0
S11303D0A8E181509040A040E1F700C0000080E017
S11303E064E00E94FC040E948D0553CF0E946804BF
S11303F0C5010E94CE0360E070E084EB92E40E94A9
S113040013058FEF91EEA4E081509040A040E1F7F6
S113041000C000000E94C10580E063E00E94F40473
S11304208FEF99E6A8E181509040A040E1F700C029
S1130430000080E063E00E94FC040E948D0529CF47
S1130440CF93DF930F92CDB7DEB70E942C0B83E0DE
S113045062E00E94880283E062E0AE014F5F5F4F7A
S113046020E00E9497020E9433030E942B050E9401
S1130470590580918B000E9410060E940B0560E0D4
S113048070E084EB92E40E94130580E062E00E9435
S1130490EC0480E064E00E94EC0480E063E00E94ED
S11304A0EC0480E061E00E94EC0480E065E00E94DE
S11304B09E0280E064E00E94FC0480E063E00E940D
S11304C0FC0480E062E00E94FC0480E061E00E94A1
S11304D0FC0480E065E00E94AE028981882321F457
S11304E00E9476060E9425018EE790E00E94CE03CA
S11304F00E947C020E9492000E94080D08950E94AE
S11305001D0D08950E94150D08950E94220D089551
S1130510843028F4683018F440E00E946A07089593
S1130520843020F4683010F40E943809089584302F
S113053020F4683010F40E94E4080895843028F40C
S1130540683018F441E00E946A070895843028F462
S1130550683018F441E00E9400080895843028F4BB
S1130560683018F440E00E9400080895843020F4B4
S1130570683010F40E9496080895CF93C82F80FD28
S113058006C082E064E040E00E94000805C082E00A
S113059064E041E00E9400088C2F869580FD06C02F
S11305A082E065E040E00E94000805C082E065E06A
S11305B041E00E9400088C2F8695869580FD06C038
S11305C082E066E040E00E94000805C082E066E048
S11305D041E00E940008C695C695C695C0FD06C0B8
S11305E082E067E040E00E94000805C082E067E026
S11305F041E00E940008CF910895CF93C82F81E075
S113060061E040E00E94000881E062E040E00E9476
S113061000088C2F82958F700E94BD0281E063E0F8
S113062041E00E9400088FE99FE00197F1F700C0C4
S1130630000081E063E040E00E9400088C2F0E94EB
S1130640BD0281E063E041E00E9400088FE99FE081
S11306500197F1F700C0000081E063E040E00E94F0
S11306600008CF91089581E061E041E00E946A07AB
S113067081E062E041E00E946A0781E063E041E0DA
S11306800E946A0782E064E041E00E946A0782E017
S113069065E041E00E946A0782E066E041E00E9472
S11306A06A0782E067E041E00E946A078FE795EB02
S11306B0A1E081509040A040E1F700C0000081E03B
S11306C061E040E00E94000881E062E040E00E94B6
S11306D0000882E00E94BD0281E063E041E00E94E4
S11306E00008AFE9BFE01197F1F700C0000081E016
S11306F063E040E00E94000888E20E94FD02B0EF3F
S1130700BA95F1F78CE00E94FD0280EF8A95F1F72B
S113071081E00E94FD02AFE3BFE11197F1F700C051
S1130720000086E00E94FD02B0EFBA95F1F708954B
S1130730CF93C82F81E061E041E00E94000881E08E
S113074062E040E00E9400088C2F82958F700E9426
S1130750BD0281E063E041E00E9400088FE99FE070
S11307600197F1F700C0000081E063E040E00E94DF
S113077000088C2F0E94BD0281E063E041E00E94EA
S113078000088FE99FE00197F1F700C0000081E0C5
S113079063E040E00E940008CF910895CF93DF9377
S11307A0EC018881882331F021960E949803899175
S11307B08823D9F7DF91CF9108958F929F92AF92BA
S11307C0BF92CF92DF92EF92FF920F931F93CF933A
S11307D0DF93CDB7DEB760970FB6F894DEBF0FBED8
S11307E0CDBF6B017C0120E030E0A9010E94270EFF
S11307F088235CF4F7FAF094F7F8F0940F2EFDE8F0
S11308008F2EF0E09F2EF02D06C00F2EFFE88F2EC6
S1130810F0E09F2EF02DC701B6010E94930EDC017B
S1130820CB012DB73EB72A5030400FB6F8943EBFE7
S11308300FBE2DBF0DB71EB70F5F1F4F5E0108948B
S1130840A11CB11CEDB7FEB7B282A18220E930E051
S1130850F801338322839582848297838683BC0143
S113086080E090E00E94BF0E9B01AC01C701B6017D
S11308700E94C20D20E030E44CE156E40E94750F62
S11308800E94930EDC01CB01F801918780870E94BE
S113089070102DB73EB7265F3F4F0FB6F8943EBF9A
S11308A00FBE2DBFC5010E94CE0360960FB6F8940B
S11308B0DEBF0FBECDBFDF91CF911F910F91FF908F
S11308C0EF90DF90CF90BF90AF909F908F9008955E
S11308D081E00E94FD028FE39FE10197F1F700C0E0
S11308E0000080E80E94FD020895CF93DF9300D0BA
S11308F000D0CDB7DEB790E8998390EC9A8394E961
S11309009B8394ED9C838150FE01E60FF11D908141
S1130910890F0E94FD028FE99FE00197F1F700C063
S113092000000F900F900F900F90DF91CF910895DA
S11309300F931F93CF93DF93CDB7DEB7A0970FB676
S1130940F894DEBF0FBECDBF2DB73EB72850304060
S11309500FB6F8943EBF0FBE2DBFEDB7FEB731966C
S11309608E010F5F1F4FADB7BEB712961C930E9347
S1130970119721E130E0338322832AE930E0358383
S11309802483978386830E9440102DB73EB7285F47
S11309903F4F0FB6F8943EBF0FBE2DBFC8010E9453
S11309A0CE03A0960FB6F894DEBF0FBECDBFDF9185
S11309B0CF911F910F910895CF93DF93EC01862F70
S11309C0642F0E947504CE010E949804DF91CF9198
S11309D008950E94FD020895843028F4683018F4C4
S11309E041E00E946A070895843028F4683018F4BE
S11309F041E00E9400080895843028F4683018F417
S1130A0040E00E9400080895843020F4683010F417
S1130A100E949608089583E065E041E00E946A0719
S1130A200E94B70B089520E030E040E152E40E94B8
S1130A302B0E20E030E040EA50E40E94C30DAB01ED
S1130A40BC0182E390E00E94E40B0E94D00B089565
S1130A500E94DA0B089581E064E041E00E946A0795
S1130A6081E065E041E00E946A0781E066E041E0E0
S1130A700E946A0781E067E041E00E946A0783E020
S1130A8067E041E00E946A0781E064E040E00E9480
S1130A90000881E065E040E00E94000881E066E033
S1130AA040E00E94000881E067E040E00E94000806
S1130AB0089583E067E041E00E94000881E064E07B
S1130AC040E00E94000881E065E041E00E940008E7
S1130AD081E066E040E00E94000881E067E041E0D8
S1130AE00E940008089583E067E041E00E94000846
S1130AF081E064E041E00E94000881E065E040E0BC
S1130B000E94000881E066E041E00E94000881E064
S1130B1067E040E00E940008089583E067E041E058
S1130B200E94000881E064E040E00E94000881E047
S1130B3065E040E00E94000881E066E040E00E9439
S1130B40000881E067E040E00E940008089583E027
S1130B5067E041E00E94000881E064E040E00E9418
S1130B60000881E065E041E00E94000881E066E061
S1130B7040E00E94000881E067E040E00E94000835
S1130B80089583E067E041E00E94000881E064E0AA
S1130B9040E00E94000881E065E040E00E94000817
S1130BA081E066E040E00E94000881E067E041E007
S1130BB00E940008089583E067E041E00E94000875
S1130BC081E064E040E00E94000881E065E040E0EC
S1130BD00E94000881E066E041E00E94000881E094
S1130BE067E040E00E940008089583E067E041E088
S1130BF00E94000881E064E041E00E94000881E076
S1130C0065E040E00E94000881E066E040E00E9468
S1130C10000881E067E040E00E940008089508951C
S1130C20CF93C82F0E94290C6C2F70E080E090E0D5
S1130C300E94BF0E0E94510C0E94360CCF91089561
S1130C40CF93DF9381E064E0C0E0D0E0AE010E9486
S1130C50E4088881813081F48FEF96E1A1E181502D
S1130C609040A040E1F700C0000080919E008B35C9
S1130C7018F0865F80939E0081E065E0C0E0D0E0DC
S1130C80AE010E94E4088881813081F48FEF96E1FF
S1130C90A1E181509040A040E1F700C000008091A4
S1130CA09E008B3018F08A5080939E0081E066E0AD
S1130CB0C0E0D0E0AE010E94E4088881813059F49C
S1130CC08FEF96E1A1E181509040A040E1F700C090
S1130CD0000010929E0090919E0080E064E670E017
S1130CE00E94F70F63BDDF91CF91089583E066E022
S1130CF041E00E946A0783E063E040E00E946A07E3
S1130D0083E063E041E00E94000881E063E00E9428
S1130D104A0A0E94300B0E943B0B0895CF93DF9345
S1130D20EC018091A400882381F483E066E041E033
S1130D300E94000880E58A95F1F783E066E040E0D0
S1130D400E94000881E08093A4008091C3009091E8
S1130D50C400A091C500B091C60088839983AA837A
S1130D60BB83DF91CF9108951F920F920FB60F921C
S1130D7011242F933F934F935F936F937F938F939C
S1130D809F93AF93BF93EF93FF938091A40081301F
S1130D9009F053C08091A300882369F412BE81E056
S1130DA08093A30010929F001092A0001092A100C3
S1130DB01092A20042C022B780919F009091A0009F
S1130DC0A091A100B091A2006627782F892F9A2FB5
S1130DD0620F711D811D911D27E531E040E050E057
S1130DE00E94D80F20E032EE44E050E00E940A1046
S1130DF0CA01B9016F5F7F4F8F4F9F4F0E94BF0E93
S1130E00DC01CB018093C3009093C400A093C50080
S1130E10B093C6008FEF93EFA1E081509040A040C3
S1130E20E1F700C0000010929F001092A000109201
S1130E30A1001092A2001092A300FF91EF91BF9124
S1130E40AF919F918F917F916F915F914F913F915E
S1130E502F910F900FBE0F901F9018951F920F9215
S1130E600FB60F9211242F938F939F93AF93BF9339
S1130E7080919F009091A000A091A100B091A20048
S1130E800196A11DB11D80939F009093A000A09393
S1130E90A100B093A200873B25E0920720E0A207BF
S1130EA020E0B20768F012BE1092A4001092A300D2
S1130EB010929F001092A0001092A1001092A20024
S1130EC0BF91AF919F918F912F910F900FBE0F9073
S1130ED01F901895843008F08BC0683008F08AC0E1
S1130EE0423008F089C0813041F1813038F08230DD
S1130EF009F441C0833009F081C05BC0413071F412
S1130F002AB381E090E0AC0102C0440F551F6A95FA
S1130F10E2F7BA01622B6ABB80E008952AB381E04C
S1130F2090E0AC0102C0440F551F6A95E2F7BA0184
S1130F30609562236ABB80E00895413069F447B349
S1130F4021E030E0C90102C0880F991F6A95E2F7D9
S1130F50842B87BB80E0089527B381E090E0AC0147
S1130F6002C0440F551F6A95E2F7BA0160956223E7
S1130F7067BB80E00895413069F444B321E030E078
S1130F80C90102C0880F991F6A95E2F7842B84BBBC
S1130F9080E0089524B381E090E0AC0102C0440FE6
S1130FA0551F6A95E2F7BA016095622364BB80E03D
S1130FB00895413071F421B381E090E0AC0102C0A6
S1130FC0440F551F6A95E2F7BA01622B61BB80E0BA
S1130FD0089521B381E090E0AC0102C0440F551F95
S1130FE06A95E2F7BA016095622361BB80E00895D7
S1130FF081E0089581E0089581E0089580E00895F6
S1131000843008F08BC0683008F08AC0423008F0A1
S113101089C0813041F1813038F0823009F441C017
S1131020833009F081C05BC0413071F42BB381E09F
S113103090E0AC0102C0440F551F6A95E2F7BA0173
S1131040622B6BBB80E008952BB381E090E0AC0190
S113105002C0440F551F6A95E2F7BA0160956223F6
S11310606BBB80E00895413069F448B321E030E07F
S1131070C90102C0880F991F6A95E2F7842B88BBC7
S113108080E0089528B381E090E0AC0102C0440FF1
S1131090551F6A95E2F7BA016095622368BB80E048
S11310A00895413069F445B321E030E0C90102C03C
S11310B0880F991F6A95E2F7842B85BB80E0089519
S11310C025B381E090E0AC0102C0440F551F6A953E
S11310D0E2F7BA016095622365BB80E00895413070
S11310E071F422B381E090E0AC0102C0440F551FBB
S11310F06A95E2F7BA01622B62BB80E0089522B3DD
S113110081E090E0AC0102C0440F551F6A95E2F7FC
S1131110BA016095622362BB80E0089581E008957E
S113112081E0089581E0089580E00895843008F016
S113113045C0683008F044C08130B1F0813030F0EF
S1131140823001F1833009F03DC02AC02BB381E025
S113115090E0AC0102C0440F551F6A95E2F7BA0152
S113116062276BBB80E0089528B381E090E0AC0176
S113117002C0440F551F6A95E2F7BA01622768BBA3
S113118080E0089525B381E090E0AC0102C0440FF3
S1131190551F6A95E2F7BA01622765BB80E008959E
S11311A022B381E090E0AC0102C0440F551F6A9560
S11311B0E2F7BA01622762BB80E0089581E00895F6
S11311C081E0089580E00895843008F049C06830D3
S11311D008F048C04115510509F446C08130B1F00A
S11311E0813030F0823001F1833009F03FC02AC0F1
S11311F089B390E09C0102C0359527956A95E2F782
S1131200B9016170FA01608380E0089586B390E0CB
S11312109C0102C0359527956A95E2F7B901617082
S1131220FA01608380E0089583B390E09C0102C0DA
S1131230359527956A95E2F7B9016170FA016083E3
S113124080E0089580B390E09C0102C03595279515
S11312506A95E2F7B9016170FA01608380E008954C
S113126081E0089581E0089581E0089580E0089583
S1131270843008F045C0683008F044C08130B1F0D3
S1131280813030F0823001F1833009F03DC02AC052
S11312902BB381E090E0AC0102C0440F551F6A9566
S11312A0E2F7BA01622B6BBB80E0089528B381E0BA
S11312B090E0AC0102C0440F551F6A95E2F7BA01F1
S11312C0622B68BB80E0089525B381E090E0AC0117
S11312D002C0440F551F6A95E2F7BA01622B65BB41
S11312E080E0089522B381E090E0AC0102C0440F95
S11312F0551F6A95E2F7BA01622B62BB80E008953C
S113130081E0089581E0089580E008958430A8F58F
S1131310813091F0813028F08230C9F0833079F542
S113132021C06F3F29F48AB38FEF8ABB80E0089510
S11313308AB31ABA80E008956F3F29F487B38FEF18
S113134087BB80E0089587B317BA80E008956F3FA4
S113135029F484B38FEF84BB80E0089584B314BA76
S113136080E008956F3F29F481B38FEF81BB80E063
S1131370089581B311BA80E0089581E0089580E072
S113138008958430A8F4813051F0813028F08230FF
S113139049F0833079F409C06BBB80E0089568BBE1
S11313A080E0089565BB80E0089562BB80E0089505
S11313B081E0089580E00895843000F56115710599
S11313C0F9F0813061F0813028F0823069F08330A7
S11313D0C9F40FC08BB3FB01808380E0089588B308
S11313E0FB01808380E0089585B3FB01808380E066
S11313F0089582B3FB01808380E0089581E008951D
S113140081E0089580E008958430E8F4813061F04B
S1131410813028F0823069F08330B9F40FC08BB387
S113142080958BBB80E0089588B3809588BB80E06D
S1131430089585B3809585BB80E0089582B3809537
S113144082BB80E0089581E0089580E008958430AF
S1131450E8F4813061F0813028F0823069F0833023
S1131460B9F40FC08BB38FEF8BBB80E0089588B3C2
S11314708FEF88BB80E0089585B38FEF85BB80E054
S1131480089582B38FEF82BB80E0089581E00895D0
S113149080E00895813071F1813020F0823009F0CC
S11314A060C050C0613071F0613028F0623089F062
S11314B06330E1F415C085B7816085BF85B782606C
S11314C085BF14C085B78E7F85BF85B7826085BF11
S11314D00DC085B78E7F85BF85B78D7F85BF06C05C
S11314E085B7816085BF85B78D7F85BF8BB78064E5
S11314F08BBF0895613071F0613028F0623089F05B
S11315006330E1F415C085B7846085BF85B7886012
S113151085BF14C085B78B7F85BF85B7886085BFBD
S11315200DC085B78B7F85BF85B7877F85BF06C014
S113153085B7846085BF85B7877F85BF8BB7806893
S11315408BBF0895662319F0613041F404C084B759
S1131550806484BF03C084B78F7B84BF8BB78062F1
S11315608BBF0895813049F0813018F0823061F4E6
S113157008C08BB78F7B8BBF08958BB78F778BBFDA
S113158008958BB78F7D8BBF0895009721F09093BA
S1131590A6008093A5000895009721F09093A800D9
S11315A08093A7000895009721F09093AA00809358
S11315B0A90008951F920F920FB60F9211242F9332
S11315C03F934F935F936F937F938F939F93AF93C7
S11315D0BF93EF93FF93E091A500F091A60030979D
S11315E009F00995FF91EF91BF91AF919F918F9170
S11315F07F916F915F914F913F912F910F900FBE0B
S11316000F901F9018951F920F920FB60F921124EE
S11316102F933F934F935F936F937F938F939F93F6
S1131620AF93BF93EF93FF93E091A900F091AA00C9
S1131630309709F00995FF91EF91BF91AF919F9178
S11316408F917F916F915F914F913F912F910F9067
S11316500FBE0F901F9018958FB780688FBF0895A5
S113166083B78F7B83BF83B7877F83BF12BE89B75E
S1131670816089BF089583B7816083BF83B78D7FFD
S113168083BF83B78B7F83BF089583B78E7F83BF68
S113169083B78D7F83BF83B78B7F83BF089529EF83
S11316A02CBF9093AC008093AB00089520E030E011
S11316B048EC52E40E942B0E20E030E040E853E472
S11316C00E94750F20E030E040E85FE30E94C20D05
S11316D00E94930E6CBF0895009721F09093AE0082
S11316E08093AD000895009721F09093B00080930B
S11316F0AF0008951F920F920FB60F9211242F93EB
S11317003F934F935F936F937F938F939F93AF9385
S1131710BF93EF93FF938091B1009091B200019633
S11317209093B2008093B1002091AB003091AC0053
S11317308217930759F41092B2001092B100E0910D
S1131740AF00F091B000309709F00995FF91EF9147
S1131750BF91AF919F918F917F916F915F914F91C5
S11317603F912F910F900FBE0F901F9018958FB53A
S11317708E7F8FBD8FB582608FBD8EB588608EBD24
S11317808EB580618EBD8FB58F7B8FBD8FB5806820
S11317908FBD8FB58F7E8FBD8FB580628FBD08954D
S11317A08EB581608EBD8EB582608EBD8EB58B7F09
S11317B08EBD08958EB58E7F8EBD8EB58D7F8EBD08
S11317C08EB58B7F8EBD0895CF92DF92EF92FF92FC
S11317D0CF93DF93EC016A017B01CB01BA0120E0D6
S11317E030E048EC52E40E94270E18165CF19E018A
S11317F040E050E060E970ED83E090E00E940A1060
S11318002150304037BD26BD66B577B56F5F7F4F39
S113181080E090E00E94BF0EA70196010E94750F20
S113182020E030E048EC52E40E942B0E20E030E04F
S113183040E85FE30E94C20D0E94930EDC01CB01DD
S11318409BBD8ABDDF91CF91FF90EF90DF90CF9049
S1131850089585B5806485BD85B5877F85BD85B5CB
S1131860806185BD85B5806285BD089585B58E7F0F
S113187085BD85B58D7F85BD85B5846085BD08959D
S113188085B58E7F85BD85B58D7F85BD85B58B7FFF
S113189085BD089529EF23BD9093B4008093B300D0
S11318A0089520E030E048EC52E40E942B0E20E042
S11318B030E040E853E40E94750F9B01AC0160E006
S11318C070E08FE793E40E94C20D0E94930E63BD03
S11318D0089520E030E048EC52E40E942B0E20E012
S11318E030E040E853E40E94750F9B01AC0160E0D6
S11318F070E080E893E40E94C20D0E94930E63BDE1
S11319000895009721F09093B6008093B500089550
S1131910009721F09093B8008093B70008951F9228
S11319200F920FB60F9211242F933F934F935F930F
S11319306F937F938F939F93AF93BF93EF93FF9393
S11319408091B9009091BA0001969093BA00809367
S1131950B90023E0813D920769F41092BA00109215
S1131960B90081E784BDE091B500F091B6003097ED
S113197009F00995FF91EF91BF91AF919F918F91DC
S11319807F916F915F914F913F912F910F900FBE77
S11319900F901F9018951F920F920FB60F9211245B
S11319A02F933F934F935F936F937F938F939F9363
S11319B0AF93BF93EF93FF938091BB009091BC00D2
S11319C001969093BC008093BB002091B3003091AA
S11319D0B4008217930759F41092BC001092BB0014
S11319E0E091B700F091B800309709F00995FF91A4
S11319F0EF91BF91AF919F918F917F916F915F9183
S1131A004F913F912F910F900FBE0F901F901895FB
S1131A10529886E880BD87E689B910BC5998579AD0
S1131A20569A559A539A549A0895009729F05F9BB1
S1131A30FECF2CB1FC01208308958CB98BB185FFB6
S1131A40FDCF08950F931F93CF938C01FC018081E8
S1131A50882351F0C0E00E941D0DCF5FF801EC0F08
S1131A60F11D80818823B9F7CF911F910F910895BB
S1131A709093BE008093BD0008959093C00080931E
S1131A80BF0008959093C2008093C10008951F92EF
S1131A900F920FB60F9211242F933F934F935F939E
S1131AA06F937F938F939F93AF93BF93EF93FF9322
S1131AB0E091BD00F091BE00309709F00995FF91C7
S1131AC0EF91BF91AF919F918F917F916F915F91B2
S1131AD04F913F912F910F900FBE0F901F9018952B
S1131AE01F920F920FB60F9211242F933F934F938F
S1131AF05F936F937F938F939F93AF93BF93EF9372
S1131B00FF93E091BF00F091C000309709F0099570
S1131B10FF91EF91BF91AF919F918F917F916F91C1
S1131B205F914F913F912F910F900FBE0F901F9097
S1131B3018951F920F920FB60F9211242F933F9373
S1131B404F935F936F937F938F939F93AF93BF93C1
S1131B50EF93FF93E091C100F091C200309709F038
S1131B600995FF91EF91BF91AF919F918F917F91D3
S1131B706F915F914F913F912F910F900FBE0F90F6
S1131B801F9018955058BB27AA270ED070C161D159
S1131B9030F066D120F031F49F3F11F41EF456C1A9
S1131BA00EF4E095E7FB4CC1E92F72D180F3BA172C
S1131BB0620773078407950718F071F49EF58AC1CC
S1131BC00EF4E0950B2EBA2FA02D0B01B901900154
S1131BD00C01CA01A0011124FF27591B99F0593F98
S1131BE050F4503E68F11A16F040A22F232F342FE0
S1131BF04427585FF3CF469537952795A795F0402E
S1131C005395C9F77EF41F16BA0B620B730B840B42
S1131C10BAF09150A1F0FF0FBB1F661F771F881FFA
S1131C20C2F70EC0BA0F621F731F841F48F4879552
S1131C3077956795B795F7959E3F08F0B3CF939541
S1131C40880F08F09927EE0F979587950895D4D0BB
S1131C5008F481E008950CD00AC102D140F0F9D013
S1131C6030F021F45F3F19F0EBC0511134C1EEC0E4
S1131C700FD198F39923C9F35523B1F3951B550B51
S1131C80BB27AA2762177307840738F09F5F5F4F4B
S1131C90220F331F441FAA1FA9F333D00E2E3AF08C
S1131CA0E0E830D091505040E695001CCAF729D0A6
S1131CB0FE2F27D0660F771F881FBB1F26173707F5
S1131CC04807AB07B0E809F0BB0B802DBF01FF2725
S1131CD093585F4F2AF09E3F510568F0B1C0FBC096
S1131CE05F3FECF3983EDCF3869577956795B7955F
S1131CF0F7959F5FC9F7880F911D9695879597F97A
S1131D000895E1E0660F771F881FBB1F62177307F2
S1131D108407BA0720F0621B730B840BBA0BEE1F07
S1131D2088F7E0950895BCD088F09F5790F0B92FBC
S1131D309927B751A0F0D1F0660F771F881F991F1C
S1131D401AF0BA95C9F712C0B13081F0C3D0B1E02E
S1131D500895C0C0672F782F8827B85F39F0B93F3E
S1131D60CCF3869577956795B395D9F73EF490951E
S1131D708095709561957F4F8F4F9F4F0895E8949C
S1131D8009C097FB3EF490958095709561957F4FBF
S1131D908F4F9F4F9923A9F0F92F96E9BB2793956D
S1131DA0F695879577956795B795F111F8CFFAF47D
S1131DB0BB0F11F460FF1BC06F5F7F4F8F4F9F4FAE
S1131DC016C0882311F096E911C0772321F09EE80C
S1131DD0872F762F05C0662371F096E8862F70E072
S1131DE060E02AF09A95660F771F881FDAF7880F4C
S1131DF09695879597F90895990F0008550FAA0BA2
S1131E00E0E8FEEF16161706E807F907C0F0121609
S1131E101306E407F50798F0621B730B840B950B0C
S1131E2039F40A2661F0232B242B252B21F4089561
S1131E300A2609F4A140A6958FEF811D811D0895FE
S1131E4097F99F6780E870E060E008959FEF80EC69
S1131E50089500240A94161617061806090608950C
S1131E6000240A9412161306140605060895092E72
S1131E700394000C11F4882352F0BB0F40F4BF2BE1
S1131E8011F460FF04C06F5F7F4F8F4F9F4F089521
S1131E9057FD9058440F551F59F05F3F71F0479517
S1131EA0880F97FB991F61F09F3F79F087950895FC
S1131EB0121613061406551FF2CF4695F1DF08C01B
S1131EC0161617061806991FF1CF86957105610538
S1131ED008940895E894BB2766277727CB0197F9E0
S1131EE008958ADF08F48FEF08950BD0C0CFB1DFD7
S1131EF028F0B6DF18F0952309F0A2CFA7CF11245C
S1131F00EACFC6DFA0F3959FD1F3950F50E0551F9C
S1131F10629FF001729FBB27F00DB11D639FAA273A
S1131F20F00DB11DAA1F649F6627B00DA11D661F89
S1131F30829F2227B00DA11D621F739FB00DA11DAA
S1131F40621F839FA00D611D221F749F3327A00D64
S1131F50611D231F849F600D211D822F762F6A2F00
S1131F6011249F5750408AF0E1F088234AF0EE0F85
S1131F70FF1FBB1F661F771F881F91505040A9F792
S1131F809E3F510570F05CCFA6CF5F3FECF3983EC7
S1131F90DCF3869577956795B795F795E7959F5FF9
S1131FA0C1F7FE2B880F911D9695879597F9089593
S1131FB0629FD001739FF001829FE00DF11D649F29
S1131FC0E00DF11D929FF00D839FF00D749FF00DB5
S1131FD0659FF00D9927729FB00DE11DF91F639F56
S1131FE0B00DE11DF91FBD01CF011124089597FB28
S1131FF0092E07260AD077FD04D02ED006D0002063
S11320001AF4709561957F4F0895F6F79095819530
S11320109F4F0895A1E21A2EAA1BBB1BFD010DC000
S1132020AA1FBB1FEE1FFF1FA217B307E407F50784
S113203020F0A21BB30BE40BF50B661F771F881F60
S1132040991F1A9469F760957095809590959B01F6
S1132050AC01BD01CF010895AA1BBB1B51E107C010
S1132060AA1FBB1FA617B70710F0A61BB70B881F24
S1132070991F5A95A9F780959095BC01CD010895B3
S1132080AEE0B0E0E6E4F0E10C941E130D891E8985
S11320908F89988D26E02C831A83098397FF02C0C9
S11320A080E090E801979E838D83AE01455E5F4F8B
S11320B0CE010196698D7A8D0E9492104D815E81C8
S11320C057FD0AC02F813885421753070CF49A0133
S11320D0020F131FF80110822E96E4E00C943A13B9
S11320E0AEE0B0E0E6E7F0E10C941E130D891E8922
S11320F086E08C831A8309838FEF9FE79E838D8309
S1132100AE01475E5F4FCE0101966F89788D0E94C4
S11321109210EF81F885E00FF11F10822E96E4E013
S11321200C943A13ADE0B0E0E8E9F0E10C9410133C
S11321303C017D876C875A01FC01178216828381DA
S113214081FFC8C12E010894411C511CF3019381E5
S1132150EC85FD8593FD859193FF8191FD87EC8747
S1132160882309F4B3C1853241F493FD859193FF2B
S11321708191FD87EC87853229F490E0B3010E94B8
S11321808612E4CFFF24EE2410E01032B0F48B3238
S113219069F08C3228F4803251F0833271F40BC030
S11321A08D3239F0803349F411602CC01260146010
S11321B029C0186027C0106125C017FD2EC0282F24
S11321C020532A3098F416FF08C08F2D880FF82E5C
S11321D0FF0CFF0CF80EF20E15C08E2D880FE82EA2
S11321E0EE0CEE0CE80EE20E10620CC08E3221F4FE
S11321F016FD6CC1106406C08C3611F4106802C060
S1132200883659F4EC85FD8593FD859193FF819182
S1132210FD87EC87882309F0B8CF982F9554933025
S113222018F09052933038F424E030E0A20EB31E3C
S11322303FE339830FC0833631F0833781F0833530
S113224009F05AC022C0F5018081898322E030E080
S1132250A20EB31E21E0C22ED12C420114C092E082
S1132260292E312C2A0C3B1CF5018080918016FF0D
S113227003C06F2D70E002C06FEF7FEFC4010E94B6
S11322807B126C0151011F7715C082E0282E312C7E
S11322902A0C3B1CF5018080918016FF03C06F2D32
S11322A070E002C06FEF7FEFC4010E9470126C01F6
S11322B01068510113FD1CC006C080E290E0B30118
S11322C00E948612EA948E2D90E0C816D906A8F3CF
S11322D00FC0F40117FD859117FF81914F0190E024
S11322E0B3010E948612E110EA940894C108D1084F
S11322F0C114D10471F7E7C0843611F0893651F561
S1132300F50117FF07C080819181A281B38124E088
S113231030E008C080819181AA2797FDA095BA2F4B
S113232022E030E0A20EB31E012F0F76B7FF08C0E3
S1132330B095A095909581959F4FAF4FBF4F006882
S1132340BC01CD01A2012AE030E00E94B212D82ED5
S1132350D4183FC0853721F41F7E2AE030E020C026
S1132360197F8F36A9F0803720F4883509F0AEC084
S11323700BC0803721F0883709F0A8C001C0106174
S113238014FF09C0146007C014FF08C0166006C01B
S113239028E030E005C020E130E002C020E132E076
S11323A0F50117FF07C0608171818281938144E048
S11323B050E006C06081718180E090E042E050E02E
S11323C0A40EB51EA2010E94B212D82ED418012F59
S11323D00F7706FF09C00E7FDF1430F404FF06C038
S11323E002FD04C00F7E02C01D2D01C01F2D802FD1
S11323F090E004FF0CC0FE01ED0DF11D208120339F
S113240011F4097E09C002FF06C01E5F05C086786C
S11324109070009709F01F5F802E992403FD12C06D
S113242000FF0DC0FD2C1E1550F4FE0CF11A1E2DDC
S113243006C080E290E0B3010E9486121F5F1E1561
S1132440C0F304C01E1510F4E11A01C0EE2484FE8A
S11324500FC080E390E0B3010E94861282FE1FC089
S113246081FE03C088E590E010C088E790E00DC0CD
S1132470C40186789070009791F081FC02C080E2DC
S113248001C08BE207FD8DE290E0B3010E94861249
S113249006C080E390E0B3010E948612FA94DF1430
S11324A0C0F3DA94F201ED0DF11D808190E0B301E7
S11324B00E948612DD20A9F706C080E290E0B301F5
S11324C00E948612EA94EE20C1F740CEF301868181
S11324D0978102C08FEF9FEF2D96E2E10C942C13AD
S11324E0FC010590615070400110D8F780959095DB
S11324F08E0F9F1F0895FC016150704001900110E0
S1132500D8F7809590958E0F9F1F08950F931F9372
S1132510CF93DF938C01EB018B8181FF1BC082FF82
S11325200DC02E813F818C819D812817390764F469
S1132530E881F9810193F983E88306C0E885F98588
S1132540802F0995009731F48E819F8101969F8396
S11325508E8302C00FEF1FEFC801DF91CF911F914F
S11325600F910895FA01AA27283051F1203181F101
S1132570E8946F936E7F6E5F7F4F8F4F9F4FAF4F87
S1132580B1E03ED0B4E03CD0670F781F891F9A1F9A
S1132590A11D680F791F8A1F911DA11D6A0F711D4E
S11325A0811D911DA11D20D009F468943F912AE05A
S11325B0269F11243019305D3193DEF6CF01089542
S11325C0462F4770405D4193B3E00FD0C9F7F6CF73
S11325D0462F4F70405D4A3318F0495D31FD40523B
S11325E0419302D0A9F7EACFB4E0A69597958795D1
S11325F077956795BA95C9F70097610571050895B0
S11326009B01AC010A2E069457954795379527955B
S1132610BA95C9F7620F731F841F951FA01D0895F3
S11326202F923F924F925F926F927F928F929F92DE
S1132630AF92BF92CF92DF92EF92FF920F931F93CC
S1132640CF93DF93CDB7DEB7CA1BDB0B0FB6F8947D
S1132650DEBF0FBECDBF09942A88398848885F84BD
S11326606E847D848C849B84AA84B984C884DF802E
S1132670EE80FD800C811B81AA81B981CE0FD11D12
S11326800FB6F894DEBF0FBECDBFED010895F894E8
S1052690FFCF76
S1132692523D00434D004C3D00202020202D2D2D85
S11326A23E2000202020203C2D2D2D2D2000426C88
S11326B27565546F6F7468204F4E0055002D0000ED
S11126C2257325642E25303464002564000041
S9030000FC
